:100000000C948D010C94C5010C94C5010C94C50190
:100010000C94C5010C94C5010C94C5010C94C50148
:100020000C94C5010C94C5010C9415190C94E91994
:100030000C9406140C94C5010C94C5010C94C501D4
:100040000C94C5010C94C5010C94C5010C94C50118
:100050000C94C5010C948D140C94C5010C94C5012D
:100060000C94C5010C94C5010C94C5010C94C501F8
:100070000C94C5010C94C5010C94C5010C94C501E8
:100080000C94C5010C94C5010C94C5010C94C501D8
:100090000C94C5010C94C5010C94C5010C94C501C8
:1000A0000C94C5010C94C5010C94C50129001F00D6
:1000B00021002300250027002D002E002A002B0000
:1000C0001A0015001C000C0013002F003000310036
:1000D000E200160009000B000E0033003402280075
:1000E0000000E1001B001900110036003800E50097
:1000F000000001531D00E000E3002C00E700015167
:100100000151000000000400060005001000370047
:100110000000000000000000140007000A000D00AD
:100120000F0000000000000000001E000800170083
:100130001800120000000000000000000000200075
:10014000220024002600000000000000350001000D
:1001500001000100010001000100CB5CCA5C01004C
:10016000C35C52000100010001000100C55CC45CD9
:100170000100010051000100010001000100010027
:100180000100000001000100010001000100010068
:100190000100000001530100010001000100010005
:1001A0000151015100000000500001000100010058
:1001B0000100000000000000000001004F000100ED
:1001C000010001000000000000000000010001002B
:1001D000010001000100000000000000000000001C
:1001E000010001000100010000000000000001000A
:1001F0001C036800650064006700650068006F000C
:1002000067005F006C0069007400650000000C036B
:10021000310031006B006200640000000403090437
:1002200009023B00020100A0FA09040000010301D9
:100230000100092111010001224000070581030886
:10024000000109040100010300000009211101005F
:1002500001226D0007058203200001120100020047
:10026000000008FFFFA100000101020001050109D3
:1002700080A101850319012AB700150126B7009551
:100280000175108100C0050C0901A1018504190147
:100290002AA002150126A002950175108100C00553
:1002A000010906A1018506050719E029E7150025C2
:1002B000019508750181020507190029EF15002530
:1002C0000195F0750181020508190129059505754B
:1002D000019102950175039101C005010906A10173
:1002E000050719E029E71500250195087501810228
:1002F0009501750881010507190029FF150026FFE2
:1003000000950675088100050819012905950575F0
:10031000019102950175039101C011241FBECFEF19
:10032000DAE0DEBFCDBF04B603FE18C08091C00284
:100330009091C102A091C202B091C3028730904B4C
:10034000A740B04B59F41092C0021092C102109213
:10035000C2021092C302E0E0F8E3099511E0A0E0C8
:10036000B1E0EAE7F8E302C005900D92A438B107C6
:10037000D9F722E0A4E8B1E001C01D92A03CB20789
:10038000E1F70E9446100C94251C0C94000081E0BB
:10039000089581E008950E94C901089508950E947A
:1003A000CE010895A5E0B0E0E8EDF1E00C94A51BC6
:1003B00049835A8330918B0189819A81311119C007
:1003C000662399F0222389F00E943A07182F682F9C
:1003D00089819A810E94160769817A81812F0E9402
:1003E000A80D2596E3E00C94C11B0E942807182F46
:1003F000F3CF0E943A0769817A81F1CFFC01262F61
:10040000408151816281738184810E94D20108956B
:1004100081E00895CF93DF93EC0160E00E94FE013C
:10042000BE010E94CF01DF91CF9108950E94EB0E93
:1004300008950E94EF0E089508950E94E1050E941C
:100440001C022FEF84E39CE0215080409040E1F7B4
:1004500000C0000008950E941D020E94B11408957A
:100460000E941D020E94D51408950F931F93CF93ED
:10047000DF938C0161E00E94FE01EC01B8010E9453
:10048000CB01811106C080E0DF91CF911F910F91C8
:100490000895B801CE010E944F128823A1F3B8013C
:1004A000CE010E945310882371F3B801CE010E943F
:1004B000C111882341F3F8018281882361F0CB3593
:1004C000FDE5DF0701F158F4C115ECE5DE0791F019
:1004D000CF3DDC4591F0C8010E94C701D5CFCD3595
:1004E0008DE5D80769F090F0C83ADD45A1F70E9484
:1004F0003002C9CF0E942B02C6CF0E94F40BF7CF67
:100500000E94320BE8CF0E943C0BE5CF0E94400BCB
:10051000E2CF0E94E2130E94A60208950E94AA025E
:100520000E94E713089508950E949302089581E0C0
:1005300008950E94970208950895CF93C82F0E94AE
:1005400094028C2F0E949902CF91089580E00E941E
:100550009D0208950E94AB120E949D020895CF93C0
:100560000E94AB12C82F809186018C1779F0C0933E
:1005700086010E94721460938701709388018093B2
:10058000890190938A018C2F0E949D02CF9108953A
:10059000ABE0B0E0EEECF2E00C94A61B4F83588782
:1005A00069877A878B8761110E947D0A1E821D826E
:1005B00085E0FE013796DE01119601900D928A9535
:1005C000E1F78C819D81892B61F449815A816B818E
:1005D0007C818D819E810E94A6092B96E2E00C947D
:1005E000C21B89819A8189238F3F79F3CE010196BD
:1005F0000E9408028111E9CFF0CFFC018081918136
:100600000E946C070895CF93C82F8823B9F08CEF10
:100610008C0F813AA8F46C2F809100019091010118
:100620000E941213882329F08C2F0E943D0A0E94F9
:100630009E0A8C2F0E94350A0E949E0ACF9108952F
:1006400080E28C0F883048F4C77081E001C0880FC9
:10065000CA95EAF70E94600AEFCFEBE5EC0FE330B2
:1006600040F4F0E0E35CFE4F808190E00E94D21203
:10067000E5CFC85AC73110F7EC2FF0E0EE0FFF1F9F
:10068000E15FFE4F808191810E94E812D7CF8823DD
:1006900039F19CEF980F913A28F40E943D0A0E948C
:1006A0009E0A089590E2980F983050F4877091E078
:1006B00001C0990F8A95EAF7892F0E94660AEFCF49
:1006C0009BE5980F933028F490E080E00E94D212CE
:1006D0000895885A873120F490E080E00E94E81263
:1006E00008951F93CF93DF93182FEB010E9403030C
:1006F000209739F4812F0E944703DF91CF911F91FA
:1007000008958FE99FE00197F1F700C0000021975D
:10071000EFCF70E060E0893311F460E570E00E9493
:1007200071030895882321F00E94600A0E949E0AA6
:100730000895882321F00E94660A0E949E0A089567
:10074000B0E0A0E0E6EAF3E00C949F1B6C01D62F2A
:10075000C72FFC011281F580F2949FE0F9220E94DC
:10076000560AE82E8823B9F0E12E1123A1F08C2F30
:10077000807F803421F080E28D0F8830D0F080912E
:100780008A0282FF16C082E00E94010B0E94560A74
:1007900091E0E82EE926BC2EB2948FE0B822FBE06F
:1007A000FB1508F468C0EB2DF0E0E95DF34E0C9406
:1007B000901BE12CF0CF0C2F0F70C07F11F0029531
:1007C000007F112399F0002359F080E28D0F8830CB
:1007D00010F0D11107C0802F0E94600A0E949E0A6B
:1007E0008D2F41C0802F0E94700AF8CF8D2F0E945C
:1007F0004703002309F43FC080E28D0F883010F0DA
:10080000D11104C0802F0E94660A03C0802F0E946D
:10081000760A0E949E0A2FC00C2F0F70C07FC03234
:1008200011F00295007FDD2381F0D13009F463C01F
:10083000112309F46DC0FF2009F463C0F60185811E
:1008400080FFCECF8F7085835CC080918A0282FD4D
:1008500033C0112359F0002329F0802F0E94600A31
:100860000E949E0A80E00E94030305C080E00E946F
:1008700047030111C7CFEB2DE850FF0B349720F44D
:100880000E94AB120E949D02EE2089F00E94520A43
:1008900080FD0DC0F60112820E944C0A0E9474066F
:1008A000C6010E94A5050E944C0A0E948406CDB78D
:1008B000DEB7E9E00C94BB1B112389F0F11006C0F0
:1008C0000E94800A802B0E949203D5CF21E0F21271
:1008D000F7CF0E94800A802B0E94870ACCCFF110AC
:1008E00006C00E94940A802F0E949903C4CF31E071
:1008F000F31609F2F6CF112331F085E08F1508F4D5
:10090000BACF802FE0CF94E09F1508F4B4CFEBCF9F
:10091000FF2049F3D93349F4FFEF27EE33E0F150DC
:1009200020403040E1F700C000008D2F0E944703B7
:10093000A2CF8C2F86958695837069F0813009F05F
:100940009ACF8D2F9C2F9370111102C090E080E000
:100950000E94E81290CF8D2F9C2F9370111102C02E
:1009600090E080E00E94D21286CF8C2F8370A1F598
:10097000111181CF4D2F429546954770440F440F7A
:100980002D2F2F7030E0042E02C0220F331F0A9447
:10099000E2F790E080E0D4FF09C08FE090E002C071
:1009A000880F991F4A95E2F780959095C695C69550
:1009B000C370822B932BC23049F058F4C13019F028
:1009C0000E94420658CF0E94390655CF0E944B061E
:1009D00052CF0E9436064FCF8695112311F08C2FEF
:1009E0008170882309F447CF4D2F42954695477073
:1009F000440F440F2D2F2F7030E0042E02C0220F21
:100A0000331F0A94E2F790E080E0D4FF09C08FE042
:100A100090E002C0880F991F4A95E2F78095909563
:100A2000C695C695C370822B932BC23049F058F4FB
:100A3000C13019F00E94AF061ECF0E94A6061BCF40
:100A40000E94B80618CF0E945A0615CFCF70112306
:100A500029F08C2F0E9474068D2F35CF8D2F0E9488
:100A600099038C2F0E94840606CFD23F51F160F487
:100A7000D03FB9F0D13F81F0112309F449C0F11002
:100A8000AFCE8C2F8F7121C0D33F11F1D43FA1F78E
:100A900080918A0282FD26C08C2F8F71112311F361
:100AA00014C0112349F084E08F1508F4E4CE8C2F94
:100AB0008F710E949606DFCE95E09F1508F4DBCE7D
:100AC000F6CF8C2F8F711111CDCF0E947406D3CE2B
:100AD000112329F08C2F8F710E946806CCCE0E94C2
:100AE0006306C9CE112349F0CF718C2F0E94740682
:100AF00063E08C2F0E94E30ABECE81E00E94010BCE
:100B0000E1E0EF1508F0B7CE82E00E94010BB3CE12
:100B1000F11000CF8C2F8F71A5CF0F931F93CF9320
:100B2000DF93EC01688179818A810E9477078C01CB
:100B30000E94C1060E943506B801CE010E94A003A2
:100B4000DF91CF911F910F910895CF93DF93EC0127
:100B50008B819C81892B29F08881998189238F3F02
:100B600051F4DF91CF910895CE010E948D05CE0101
:100B70000E940A02F6CFCE010E9435028111F4CF05
:100B80000E94560A882369F38A81882351F3809151
:100B90008A0282FFE6CF82E00E94010BE2CF90E062
:100BA00080E00E94D21290E080E00E94E8120E9451
:100BB0007D0A0E949E0A08950E94450A0E94CF0560
:100BC00008950E946D0A0E94DC05089592959F7019
:100BD000963091F058F4925F9F70923058F4803FB5
:100BE00019F030F4883E30F481E008959A5FF4CF34
:100BF000843FD1F380E00895883EB0F3813FD1F780
:100C0000F3CFFC0183819481892B29F0808191812C
:100C100089238F3F11F480E00895808191810E94A3
:100C20006C070E94E6050895A5E0B0E0EAE1F6E071
:100C30000C94A61B2596E2E00C94C21BA6E0B0E043
:100C4000E4E2F6E00C94A61B2696E2E00C94C21BAC
:100C500008950E94280608950E9429069093BB01DA
:100C60008093BA010E94CF05089508950E942C0632
:100C700008952091BA013091BB01822B932B0E94E1
:100C80002C0608952091BA013091BB018223932351
:100C90000E942C0608952091BA013091BB01822751
:100CA00093270E942C0608950E94280608950E940A
:100CB000540608950E9457069093B9018093B80195
:100CC0000E94CF05089590E080E00E945A060895A2
:100CD00021E030E0A90102C0440F551F8A95E2F7D8
:100CE000CA010E945A06089521E030E002C0220F96
:100CF000331F8A95E2F78091B8019091B901822B58
:100D0000932B0E945A06089521E030E002C0220F82
:100D1000331F8A95E2F7209530958091B801909124
:100D2000B901822393230E945A06089521E030E0FE
:100D300002C0220F331F8A95E2F78091B80190918B
:100D4000B901822793270E945A0608952091B8017D
:100D50003091B901822B932B0E945A06089520915D
:100D6000B8013091B901822393230E945A06089555
:100D70002091B8013091B901822793270E945A0629
:100D800008950895262F277091E001C0990F2A95A4
:100D9000EAF723E0769567952A95E1F7660F771FC6
:100DA000660F771FFA01E60FF71F50E040E0682F4B
:100DB00070E08191DF0111979B01042E02C03695EE
:100DC00027950A94E2F721702195282729232827BF
:100DD0002C934F5F5F4F4430510559F70895A82F6A
:100DE000A77023E0969587952A95E1F7880F991FBC
:100DF000880F991FFB01E80FF91F50E040E080E0E9
:100E0000219130E00A2E02C0369527950A94E2F728
:100E100021703327042E01C0220F0A94EAF7822B97
:100E20004F5F5F4F4430510559F70895262F993091
:100E300070F4893060F4682F70E089E0989F600D4D
:100E4000711D11244CE851E0822F0E94C2060895C2
:100E5000292F993068F4893058F490E06CE871E0FB
:100E600039E0239F800D911D11240E94EF06089503
:100E700080E00895B0E0A0E0E0E4F7E00C949F1B70
:100E80007C010091B8011091B9018091BA01909153
:100E9000BB01082B192BCFE0D0E0CC24C394D12C7C
:100EA000BC2EC6010C2E02C0880F991F0A94E2F7CF
:100EB00080239123892B49F4219790F7B12C8B2D16
:100EC000CDB7DEB7E9E00C94BB1BB7018C2F0E94B5
:100ED000C30D019789F3F3CFCF93DF93EC010E9409
:100EE0003A07BE010E94C30DDF91CF9108951F9371
:100EF000CF93DF93EB0190918B01992339F0CB01D4
:100F00000E946C07DF91CF911F910895882369F0AB
:100F1000CB010E943A07182F682FCE010E941607B6
:100F2000BE01812F0E94C30DEDCFCB010E94280787
:100F3000182FF6CF1F93CF93DF93C091BC0116E01B
:100F40008091BD018C1304C0DF91CF911F91089552
:100F5000D0E01C9FF0011D9FF00D1124E254FE4FC4
:100F60004081518162817381848195810E941E0636
:100F70002196C770E5CF4091EE015091EF0160914D
:100F8000F0017091F1018091F2019091F3010E94C2
:100F90001E0608951F93CF93DF938091F301807F06
:100FA00009F049C08091F001882309F444C0809180
:100FB000BC01C091BD016091EE017091EF01A09163
:100FC000F101B091F201D62FD72316E0C81799F19D
:100FD00090E0109711F0DF3F19F401968770F6CF7B
:100FE000189F9001199F300D1124F901E254FE4F12
:100FF00041814713F2CF40814613EFCF4281411127
:10100000ECCF438154814A1B5B0B483C510528F7C8
:101010008091F3018F7080618093F301F901ED53AA
:10102000FE4F80818F70806180838EEE91E00E9400
:10103000A5050E949A07DF91CF911F910895A1E124
:10104000B0E0E5E2F8E00C949E1B8C0185E0F8012D
:10105000DE011D9601900D928A95E1F7F801E2807C
:101060008EEEC82E81E0D82E6091F1017091F201D0
:101070006115710509F44EC19091EE012091EF01C7
:10108000892F82238F3F09F445C140815181A3807C
:10109000B480F090F001F501E61BF70BFF2009F496
:1010A000EAC08091F301382F307FE83CF10508F069
:1010B000A3C031116DC0FE2C251316C0941314C0AB
:1010C000E11012C08F7080618093F3010E94BB0712
:1010D000C6010E94A5058091F301F80185838F2D3B
:1010E0006196EAE00C94BA1BA114B10429F0842F94
:1010F00085238F3F09F027C180E0F82FF170DF2EA4
:1011000080FF3CC08091BC012091BD0136E082137C
:1011100015C04D875E878D859E850E946C07292F9F
:1011200022952F702230F0F0243018F59F70F1F0E6
:10113000F8019581907FD1F4D12C1EC090E0389FAA
:10114000F001399FF00D1124E254FE4F61816513C7
:1011500006C06081641303C06281E6120FC001966D
:101160008770D5CF9F7011F0882331F3805E88306F
:1011700018F3C8010E94A505FD2CB1CFEE2009F49B
:10118000AECF8091F30181608093F301F12CA7CF62
:10119000251306C0941304C0F801EE2009F487C09B
:1011A000C8010E940106882319F1EE2009F18091FF
:1011B000F301803270F02091EE013091EF01388719
:1011C0002F831986BB86AA868C87CE0107960E943C
:1011D000A50586E0F801AEEEB1E001900D928A958A
:1011E000E1F70E94CA070E94BB07FF24F39477CF60
:1011F000C8010E94A505F9CF311113C07A2DB98A13
:10120000A88A6E2D89890E9414068EEE91E00E94B4
:10121000A50586E0F60111928A95E9F70E94BB07C1
:10122000B5CF25130FC094130DC0E1100BC0F8010A
:101230008583C8010E94A50586E0F60111928A9572
:10124000E9F74DCFC8010E940106882389F2EE20FC
:1012500079F28091F301803208F4BBCF2091EE0146
:101260003091EF013A8329831B82BD82AC828E8349
:10127000CE010196ACCFE83CF10508F03EC0FE2C53
:10128000EE2009F4B5CF25132AC0941328C080910D
:10129000F30180FD1BC0982F907FC1F0F80185837A
:1012A000903F31F0982F907F905F8F70892B8583CE
:1012B000C8010E94A50586E0F801AEEEB1E00190FC
:1012C0000D928A95E1F70E94BB0709CF86E0F801ED
:1012D000AEEEB1E001900D928A95E1F700CFC80122
:1012E0000E940106811175CF8091F3018160809386
:1012F000F301C8010E94A505F2CE7A2DB98AA88A09
:101300006E2D89890E94140686E0F60111928A9555
:10131000E9F7D9CFEE2009F46BCFC8010E9401068E
:10132000F82E882309F464CF86E0F801AEEEB1E030
:1013300001900D928A95E1F78EEE91E00E94FD02F8
:101340000E94CA07C0CF81E08E25D7CEACE0B0E0C6
:10135000ECEAF9E00C94A51B4F83588769877A87DC
:101360008B879C87CE0107960E941F08882369F00F
:101370008A859B85892B39F04F815885842F852359
:101380008F3F09F06BC016E05FC086E0FE01379624
:10139000DE01119601900D928A95E1F78A859B8571
:1013A000892B89F38F81988589238F3F61F3209161
:1013B000BD0130E0C9010196877099274091BC01B9
:1013C0004817190671F40E94E1051092BD011092B0
:1013D000BC0186E0EEEEF1E0DF011D928A95E9F7AF
:1013E000D2CF96E0929FD001939FB00D1124A254CA
:1013F000BE4FFE01319601900D929A95E1F78093D0
:10140000BD010E949A07BFCF819FC0011124825461
:101410009E4F0E941F088823E9F0E091BC011E9FA7
:10142000F0011124E254FE4F4081518162817381A9
:10143000848195810E941E068091BC0190E00196F6
:10144000877099278093BC018091BC019091BD0168
:101450008913DACF2C96E3E00C94C11B69857A8559
:101460008B859C850E941E068ECF682F809100017F
:10147000909101010E9492130895682F80910001BC
:10148000909101010E94A013089580910001909114
:1014900001010E94AE1308958091140285958595EF
:1014A0008595089580911402877008959091140293
:1014B000977081E009F480E00895809137020895E3
:1014C00090913702892B80933702089580959091EF
:1014D00037029823909337020895109237020895A7
:1014E00090913602892B80933602089580959091D1
:1014F000360298239093360208951092360208958A
:1015000080911502089508950E94830A089590918C
:101510008A0292FF08C090911502981721F08093DB
:1015200015020E94840A089580911502882329F0EB
:101530001092150280E00E94840A0895CF93DF93F1
:10154000E0910001F0910101809137028083E091E8
:101550000001F0910101808190913602892B8083F6
:1015600090911502992381F0E0910001F091010121
:101570008081892B808380910001909101010E94DC
:10158000FE1281110E94940AC0910001D0910101C4
:1015900040E250E064EF71E0CE010E94CD1B892B48
:1015A00059F080E2FE01A4EFB1E001900D928A951E
:1015B000E1F7CE010E94B812DF91CF91089508950E
:1015C0000E94DF0A089590918A0292FF11C098E06C
:1015D000899F90011124622B609314020E9474066B
:1015E000809114028595859585950E94E00A08955D
:1015F0000E94740608951092140280E00E94E00A8E
:101600000895909114028095892380931402282FC5
:10161000277091F4282F082E000C330B9217130615
:1016200059F090918A0292FF07C08595859585951E
:101630000E9484060E94FB0A089590918A0292FB00
:10164000222720F9281769F080FB92F990938A02EB
:101650008091890290918A020E946E0B82E00E9422
:10166000010B089580918A0282FB882780F991E01E
:1016700089270E941D0B089581E00E941D0B08958B
:1016800080E00E941D0B08956FEF7FEF90E080E0F7
:101690000E940F1C089590E080E00E94EB1B21E067
:1016A000883E9E4F09F020E0822F089582E090E06E
:1016B0000E94E31B089583E090E00E94E31B0895DD
:1016C000CF9384E090E00E94E31BC82F82E290E079
:1016D0000E94E31B982F8C2FCF910895CF93C92F91
:1016E000682F84E090E00E94F11B6C2F82E290E072
:1016F0000E94F11BCF910895AB01BC018FE090E0F7
:101700000E94031C0895AB01BC0183E190E00E949C
:10171000031C089560E070E0CB010E94830B0895E4
:1017200060E070E0CB010E947C0B0E948A0B089560
:1017300068EE7EEF90E080E00E940F1C60E082E0A7
:1017400090E00E94F11B60E083E090E00E94F11BBA
:101750001092BB011092BA0160E084E090E00E9418
:10176000F11B64E082E290E00E94F11B60E085E002
:1017700090E00E94F11B60E086E090E00E94F11B87
:101780006FEF87E090E00E94F11B40E050E0BA016B
:1017900088E090E00E94031C60E08DE090E00E94F1
:1017A000F11B40E050E0BA0188E190E00E94031C88
:1017B00060E087E190E00E94F11B40E050E0BA0158
:1017C0008CE190E00E94031C70E060E080E290E019
:1017D0000E940F1C40E050E0BA0188E190E00E94B6
:1017E000031C0E94900B08950E94980B0895682F87
:1017F0008EE090E00E94F11B08950E9472146093A5
:10180000500270935102809352029093530260935E
:101810004C0270934D0280934E0290934F020895B4
:10182000089508950E94110C089508950E94150CC2
:1018300008958DEA9EE00E94A1120E94100C0E9461
:10184000120C089581E008950E94220C08950895D5
:1018500008950E94270C0E94280C08950E94CC0E27
:101860000E949C0208950E945D140E94A70F0E948E
:101870002E0C0E94160C0895AAE0B0E0E2E4FCE011
:101880000C949B1B0E94BD0F2AE3822E22E0922E15
:10189000640110E0F601E190F1906F01812F0E9448
:1018A000F20E1F5F193009F449C0E816F90691F3EA
:1018B0008091540281FD0E94FB0E0E94240C782E20
:1018C00010E0812F0E94F20E7C01F401A190B190F2
:1018D0004F018A159B0561F1A826BF2400E0CC24A6
:1018E000C394D12CC5018C219D21892BC1F0772077
:1018F000B1F00E831F8321E0C7018C219D21892B2C
:1019000009F420E028870E9466148160782F9A8766
:1019100089874E815F8168858A850E94C8020F5F32
:10192000CC0CDD1C0930F1F6F4013297F182E08233
:101930001F5F193031F60E94FD0B22C0E816F90630
:1019400009F0B6CF0E9466148C0180913802909104
:10195000390208171907A1F08FEF89838A831B8248
:101960000E9466148160782F9D838C8349815A81FF
:101970006B818D810E94C802109339020093380256
:101980000E94AF022A96EDE00C94B71BCF93DF9331
:101990000E94C80DEC01811522E59207E8F581153A
:1019A00031E5930708F0A3C0883E910510F5803E0D
:1019B000910570F5883A910570F4853A910508F023
:1019C00078C08130910521F1009711F1049700F55D
:1019D000D0E0C0E01DC08F3B9105D0F7C85AD0E0E1
:1019E000CC0FDD1FC05CDE4F0990D881C02DD464C0
:1019F0000FC0811540E5940708F066C0C11580E46A
:101A0000D80708F05EC0CE019A9581159F4100F776
:101A1000CE01DF91CF910895811536E5930718F532
:101A2000811545E5940708F07BC0C11584E5D8070A
:101A300008F071C09E01237033279C2F96959695D0
:101A4000C115D34508F458C0C1E0D0E002C0CC0FA6
:101A5000DD1F2A95E2F730E2939FC0011124C82BC5
:101A6000D92BDA68D5CFC1158AE5D80778F4C11526
:101A700029E5D20708F05EC0C11538E5D30708F4A0
:101A8000A7CFDC2FCC27C06FD06AC2CFCE01905633
:101A90008115904208F09CCF8D2F8F710E946A0EA5
:101AA00090E0982F882788279F719C012C2BE901B3
:101AB0003FC0C55AD0E0C259DE4FC881D0E0D064E3
:101AC000A7CFDF70D06AA4CF8370992721E030E0E0
:101AD00002C0220F331F8A95E2F7C695C69580E2B1
:101AE000C89FE0011124C22BD32BDD6891CFD82FE2
:101AF000CC27C16FD06A8CCFC1E0D0E002C0CC0F40
:101B0000DD1F2A95E2F720E2929FC0011124C82B25
:101B1000D92BDC687DCFDC2FCC27C46FD06A78CF7F
:101B20000E946A0EC82FD0E0DC2FCC27CC27DF71B3
:101B3000D0626ECF8C2F8F700E946A0E34E0D695E3
:101B4000C7953A95E1F7CF709C2FEC01D06960CF33
:101B5000972F7930A8F4693098F470E029E0929FCB
:101B6000600D711D1124FB0191E5899FE00DF11DB0
:101B70001124EE0FFF1FE455FF4F859194910895B6
:101B800080E090E008950E94A80D0E94C60C089580
:101B900082389105B9F1B0F48133910509F47DC023
:101BA00048F48932910509F46DC08A32910509F42F
:101BB0007BC008958533910509F45FC08933910591
:101BC00009F10895833E9105D9F138F4803E9105DD
:101BD00029F1823E910579F10895863E9105D9F16A
:101BE000873E910509F43EC0843E910541F5209160
:101BF0008A0221FF24C08091890284FD19C087EEEA
:101C000090E0089520918902237009F05AC0209134
:101C10008A0223FF14C089E290E00895209189028E
:101C200020FD38C030918A0230FF09C024FF43C034
:101C300090E080E008952091890222FDF7CF089579
:101C40002091890222FD3AC030918A0230FD39C0CC
:101C500024FFF5CFEDCF2091890223FFF0CF24FDA3
:101C6000E7CFCDCF2091890223FD2EC030918A028B
:101C700031FFEECF84EE90E008952091890225FF98
:101C8000DECFC9CF2091890225FD21C020918A0293
:101C900023FFD5CF89E390E0D2CF2091890226FFA0
:101CA000CECF8AE290E008952091890226FFC7CF27
:101CB00081E390E0089583EE90E0089582EE90E055
:101CC000089580EE90E0089586EE90E0089585E313
:101CD00090E008959091890292FF06C0282F287104
:101CE0002830F9F4877F846093FF06C0282F28717D
:101CF0002831F1F4877E846120918A0220FF06C09A
:101D0000382F38713830D9F4877F816021FF06C0C1
:101D1000282F28712831D1F4877E816194FD877E38
:101D20000895282F24712430F9F68B7F8860DCCF4A
:101D3000282F2471243101F78B7E8861DDCF382F65
:101D40003171313019F78E7F8860E0CF282F2171F3
:101D5000213121F78E7E8861E1CF80E008950E94D5
:101D6000440B08950E94BD0F2FEF86E791E02150AC
:101D700080409040E1F700C000000E94BD0F80E06D
:101D80000E94F20E80FF04C00E94AF0E0E94B114A8
:101D900008950E94B20E08950E944B0B811102C05B
:101DA0000E94F40B0E94560B809354020E94600B19
:101DB00090938A02809389020E94C90E0E945B0B55
:101DC00090E00E9436068091B8019091B9010E947E
:101DD0005706089508950E94EA0E089508950E94F6
:101DE000EE0E0895E82FF0E0EE0FFF1FE356FD4FD3
:101DF000808191810895089580EA8A95F1F7089588
:101E000000C008950E94FC0E0895F894E82FE29512
:101E1000EF70F0E031A1282F2F7081E090E001C039
:101E2000880F2A95EAF7982F9095932391A392A172
:101E3000892B82A378940895CF93DF93CAE7D1E0EA
:101E400089918F3F11F00E94050F81E0C338D807B8
:101E5000B9F7C1E7D1E089918F3F11F00E94050FDA
:101E600081E0CA37D807B9F7DF91CF910895AF92D3
:101E7000BF92DF92EF92FF920F931F93CF93DF9366
:101E80008C01D62EC62FD0E0CE0186589E4F7C0105
:101E9000FC0120812F3F09F44DC0F894E22FE29518
:101EA000EF70F0E031A12F7081E090E001C0880F69
:101EB0002A95EAF7932F982B91A392A180958923D5
:101EC00082A378940E94000FE1E7F1E04AE751E035
:101ED00021E030E0B12CA12C61916F3FA9F1A62F38
:101EE000A295AF70B0E090968C9190E06F7002C0B8
:101EF000959587956A95E2F780FD26C0C901A82AC5
:101F0000B92A220F331F4E175F0731F7F70180817F
:101F10008F3F11F00E94050F61E0A114B10409F494
:101F200060E08D2D0E94020FCC0FDD1FC00FD11F6E
:101F3000B982A882DF91CF911F910F91FF90EF900E
:101F4000DF90BF90AF90089590E080E0D8CF0E94DE
:101F50001C0F82E1EDE9F2E0DF01982F1D929A95C6
:101F6000E9F7EBE8F2E0DF011D928A95E9F789E0F5
:101F70000E94F80F0E9416020895A2E1B0E0E3EC7F
:101F8000FFE00C94A31B8E010F5F1F4F82E1F8014D
:101F900011928A95E9F7F12C6F2DC8010E94370F35
:101FA000F394F9E0FF12F8CF42E150E0B8018BE87A
:101FB00092E00E94CD1B21E0009709F420E0892BDC
:101FC00041F082E1F801ABE8B2E001900D928A9510
:101FD000E1F749E06DE972E08BE892E00E94F90FC9
:101FE000182F0E941902812F6296E5E00C94BF1B06
:101FF0000895CF92DF92EF92FF921F93CF93DF93DA
:102000006C017B01C42F222349F081E080935702A9
:102010000E946614909356028093550210915702C5
:1020200011110AC010E0812FDF91CF911F91FF9015
:10203000EF90DF90CF9008958091550290915602D5
:102040000E947E14059770F3D0E0CC0FDD1FAE0127
:10205000B601C7010E94CD1B892B41F0AE01B6012C
:10206000C7010E94DA1B10925702DDCF10E0FBCFB0
:102070000E946B160E94330C0E94781608950E94ED
:102080007D160E943C0C0E94971608950E94FF1333
:102090000E9451160E94190C0E9438100E943F1095
:1020A0000E94290CFBCFCF93DF93EC01FB018281CF
:1020B000882309F464C1C430FDE5DF07E0F5CB3FB8
:1020C0009CE5D90730F49E0122503C45243131056E
:1020D000D8F50E94600B90938A0280938902C231E6
:1020E000ECE5DE0709F41FC108F06EC0C9308CE5CD
:1020F000D80709F4F2C008F03FC0C530ECE5DE07B0
:1021000009F4DBC058F5C3308CE5D80709F4CDC01D
:1021100008F0CFC0809189028160C230DC4509F4AB
:10212000AEC08091890290918A020E946E0B0E943B
:10213000E10580E009C0C63AEDE5DE0751F238F46A
:10214000C2369DE5D90729F2DF91CF9108959E010E
:102150002E5A3D4523303105B8F7BBCF8091890217
:102160008062C730FCE5DF0709F489C008F4B1C01C
:1021700080918902806483C0CD309CE5D90709F441
:10218000BAC070F4809189028E7FCB30FCE5DF0706
:1021900009F475C008F4A7C0809189028D7F6FC0D3
:1021A000CF309CE5D90709F4B6C008F4A8C0C03107
:1021B000FCE5DF0709F4B3C0C131DC4509F0B1CF5C
:1021C000809189028F7B5BC0C1159DE5D90709F419
:1021D000B4C098F5CB3FFCE5DF0709F472C0B8F452
:1021E000C4319CE5D90709F4B6C008F4A2C0C531D2
:1021F000DC4509F096CF8091890282FB992790F9FE
:1022000021E0922790FB82F990FB83F938C0CD3F03
:102210008CE5D80709F477C008F457C0CE3FECE549
:10222000DE0709F474C080918A028360CF3FDC45E9
:1022300009F077CF80938A0274CFC2368DE5D80734
:1022400009F496C068F4C230EDE5DE0709F48CC0ED
:1022500008F477C0C330DD4509F063CF80E085C066
:10226000CE3A9DE5D907E9F068F490918902892F6B
:102270008E7F90FF8160C63ADD4509F052CF809392
:1022800089024FCFCF3A8DE5D80789F1C03BDD45B4
:1022900009F047CF90918A02892F877F93FF88604A
:1022A000C9CF80918A028860C5CF809189028260FF
:1022B000E6CF809189028460E2CF809189028860B4
:1022C000DECF80918A028160B5CF80918A028260E0
:1022D000B1CF809189028061D2CF0E94E1058091C7
:1022E00089028068CCCF809189028C60C8CF8091B0
:1022F0008A02877F9FCF809189028B7FC0CF809198
:102300008902877FBCCF80918A028E7F93CF809194
:102310008A028D7F8FCF809189028F7EB0CF80918E
:1023200089028F7DACCF0E94E105809189028F7771
:10233000A6CF80918902837FA2CF80918A028C7F71
:1023400079CF80918A02982F909591708E7F892BFA
:1023500090FB81F96FCF0E94E10590918902892F4E
:1023600097FB87F980588BCF81E00E94F70BD9CE7D
:1023700090918902892F8F7E94FF806180CF81E0C8
:10238000E3CECF93DF93EB0186319C4511F50E949C
:102390005D0A9A81992399F08A7A91E009F490E094
:1023A00090935802811109C089E20E94350A0E9467
:1023B0009E0A80E0DF91CF91089585E3F6CF80916A
:1023C0005802811104C089E20E943D0AF0CF85E3E2
:1023D000FBCF81E0EFCF0F931F93CF93DF93C42FF9
:1023E000D22FFC0182818823C9F040935B020E94B6
:1023F000661490935A028093590280E28C0F8830C1
:1024000040F4C77081E001C0880FCA95EAF70E94C6
:102410009203DF91CF911F910F91089510915B026C
:10242000141332C08091590290915A020E947E1476
:10243000883C910548F5C0E2CD0F1D17B9F080E248
:10244000810F883040F4177081E001C0880F1A9521
:10245000EAF70E949903C83048F481E09D2F9770F5
:1024600001C0880F9A95EAF70E949203802F0E947C
:102470008903C83070F6D77081E001C0880FDA9503
:10248000EAF70E949903C5CF80E28C0F883008F6E6
:10249000C77081E001C0880FCA95EAF7F2CF0F93A9
:1024A0009C01CB01243F4CE5340759F1A8F4293DA8
:1024B000FCE53F0701F12A3D4CE53407D1F1283D09
:1024C0003C4591F406E221EE41EE68ED7CE50E9488
:1024D000EB1180E00F910895263FFCE53F07E9F0FE
:1024E000B0F0273F3C45F9F0FC018281882339F1A7
:1024F00010925B02EFCF07E225EE45EE69ED7CE539
:10250000E6CF06E221EE40EE64EF7CE5E0CF07E2A5
:1025100025EE44EE65EF7CE5DACF06E221EE42EEF1
:1025200066EF7CE5D4CF07E225EE46EE67EF7CE56B
:10253000CECF08E221E045EE6AED7CE5C8CF81E030
:10254000C9CF90938501809384010895909361028F
:10255000809360020895E0916002F09161023097EB
:1025600029F00190F081E02D0995089580E008950B
:10257000E0916002F0916102309799F020910E0194
:10258000222359F02091890227FF07C0DC012C91FA
:1025900011962C93119726E02C930280F381E02D65
:1025A0000995089520915E0230915F02281739073E
:1025B00071F090935F0280935E02E0916002F0916F
:1025C0006102309721F00680F781E02D099508958A
:1025D00020915C0230915D022817390771F09093C9
:1025E0005D0280935C02E0916002F091610230979D
:1025F00021F00084F185E02D09950895FC013296C3
:1026000080910E01882321F0809189029EE187FF4D
:1026100096E080E0915008F4089521912223D1F3AF
:102620008F5FF8CF662301F120910E012223F1F094
:102630002091890227FF1AC0462F46954695469558
:102640004E3190F4677021E030E002C0220F331F5A
:102650006A95E2F7840F911DFC01828190E02823A6
:10266000392381E0232B69F480E00895FC01329640
:1026700008962191261721F0E817F907D1F7F4CF32
:1026800081E008959C01FC0132969FEF80E041912A
:10269000461751F09F3F19F4411101C0982F8F5FE9
:1026A0008630A9F79F3F09F40895290F311D97FD42
:1026B0003A95F90162830895FC01329608962191BA
:1026C000261303C0DF0111971C92E817F907B9F729
:1026D0000895E62FE695E695E695EE3168F4E80F65
:1026E000F92FF11D677021E030E001C0220F6A95DB
:1026F000EAF78281822B82830895E62FE695E6959C
:10270000E695EE3170F4E80FF92FF11D677021E0C6
:1027100030E001C0220F6A95EAF7209582812823D4
:102720002283089520910E01222339F020918902FD
:1027300027FF03C00E94691308950E944213089561
:1027400020910E01222339F02091890227FF03C036
:102750000E947D1308950E945C130895FC01329637
:1027600080910E01882351F08091890287FF06C075
:102770008EE1DF011D928A95E9F7089586E0F9CF91
:1027800008950E94C0130895811106C081E08093CE
:1027900062020E94C113089582E0F9CF83E0809322
:1027A00062020E94C11308950E94C413089581E03B
:1027B000809362020E94C11308950E94D713089566
:1027C000089508950E94E1130895089508950E94C0
:1027D000E0130895CF930E94E5130E94BD0F0E945D
:1027E000E613C0E08C2F0E94F20E892B31F4CF5FEC
:1027F000C930C1F780E0CF91089581E0FCCF85B763
:10280000806885BF85B7806885BF08951F921FB611
:102810001F9211248F939F93AF93BF938091630274
:10282000811113C08091AF029091B002A091B102CA
:10283000B091B2024196A11DB11D8093AF02909359
:10284000B002A093B102B093B202BF91AF919F9139
:102850008F911F901FBE1F9018958091B7028430F2
:1028600031F10E9489021092630288E190E020E435
:102870000FB6F894A895809360000FBE2093600077
:1028800083B7817F846083BF83B7816083BF78947F
:10289000889583B78E7F83BF0FB6F894A8958091F3
:1028A0006000886180936000109260000FBE089500
:1028B0000E94E1050E948E02089582E084BD93E0AB
:1028C00095BD9AEF97BD80936E0008952FB7F89449
:1028D0008091AF029091B002A091B102B091B2028A
:1028E0002FBF08952FB7F8946091AF027091B00296
:1028F0008091B1029091B2022FBF08959C014FB711
:10290000F8948091AF029091B002A091B102B09181
:10291000B2024FBF821B930B089578941F921FB68B
:102920001F9211248F939F93AF93BF938091AF0217
:102930009091B002A091B102B091B2020196A11D96
:10294000B11D8093AF029093B002A093B102B093F7
:10295000B202BF91AF919F918F911F901FBE1F90A8
:10296000189581E08093E00080E28093D800109277
:10297000C9008FE19EE40197F1F700C0000087E0F5
:1029800090EBDC018093C0029093C102A093C2023D
:10299000B093C30288E19CE00FB6F894A8958093A9
:1029A00060000FBE90936000FFCF88E19CE00FB6FF
:1029B000F894A895809360000FBE90936000FFCFBD
:1029C0008091870208950895CF93DF93EC01809161
:1029D0000E018823B1F18091890287FF32C060E245
:1029E00082E08093E9008FEF9091E800815095FD9F
:1029F00006C095ED9A95F1F700008111F5CF809111
:102A0000E80085FF1BC080910E0170E050E040E0BF
:102A1000811104C050E040E068E070E0CE010E9407
:102A200009178091E8008E778093E80080E2FE012C
:102A3000A7E6B2E001900D928A95E1F7DF91CF9180
:102A4000089568E081E0CDCF8093640270936602C0
:102A5000609365028091B702843001F582E0809333
:102A6000E9008FEF9091E800815095FD06C095ED4B
:102A70009A95F1F700008111F5CF8091E80085FF6C
:102A80000DC050E040E063E070E084E692E00E9418
:102A900009178091E8008E778093E8000895BC01C3
:102AA00084E00E9424150895BC0183E00E9424154F
:102AB000089508958091B602811109C00E94991865
:102AC0000E94F6188091E20084608093E2000895ED
:102AD0001092B60208950E94D71308956091B30230
:102AE00081E0611101C080E00E94CE1308959091B1
:102AF000B70281E0943009F080E06091B3020E9457
:102B0000D413089542E061EC81E00E94151842E27E
:102B100061EC82E00E9415189091B70281E0943038
:102B200009F080E06091B3020E94C413089580917F
:102B3000B902833009F461C030F48130D1F18230C0
:102B400009F49EC008958A3009F48AC08B3009F4D4
:102B50006FC0893009F050C08091B802813209F00D
:102B60004BC08091BC029091BD02029708F044C016
:102B70008091E800877F8093E8008091E80082FFE1
:102B800037C09091F3008091F200029731F4809168
:102B9000F100813011F0863021F48091F1008093B2
:102BA00087028091E8008B778093E8000E944918A3
:102BB00023C08091B802813AF9F48091E800877FC0
:102BC0008093E8008091BC029091BD02892B61F452
:102BD00060E287E692E070E00E9458178091E8007A
:102BE0008B778093E800089560E090E080E0F3CF79
:102BF0008091B7028111C1CF08958091B802813AC6
:102C0000D9F78091BC029091BD02892BA9F78091E0
:102C1000E800877F8093E8008091E80080FFFCCF88
:102C200080910E018093F1008091E8008E77BCCFF7
:102C30008091B802813201F78091BC029091BD026F
:102C4000892BD1F68091E800877F8093E8000E946D
:102C500049188091BA0280930E010E94E1050895FF
:102C60008091B802813241F68091E800877F80939D
:102C7000E8000E9449188091BB0280938802089561
:102C80008091B802813A09F0B7CF8091E800877F40
:102C90008093E8008091E80080FFFCCF809188025B
:102CA000C1CF84B7877F84BF0FB6F894A895809171
:102CB0006000886180936000109260000FBE80E821
:102CC00090E00FB6F89480936100909361000FBE7E
:102CD0000E94DD1308950E9499180E94F618E2EEF2
:102CE000F0E080818460808378940E94751B089551
:102CF00082E091E00E94A61208958091B70285308B
:102D000031F48091B702853019F00E94581408956B
:102D10000E942D148091B502882399F30E94EA1332
:102D2000882379F30E94F3160E94E105EACF089503
:102D30000E949B160895292F33272330310519F15E
:102D400068F42130310509F444C02230310509F41A
:102D500045C090E080E030E020E025C02132310520
:102D600049F122323105A9F780E490E02AED32E002
:102D700061157105C1F08DE690E02DE632E061301D
:102D8000710589F0E6CF99278130910581F0009790
:102D900029F00297F1F6E0EFF1E002C0ECE1F2E099
:102DA000849190E09F01FA01318320830895EEE041
:102DB000F2E0F6CF89E090E022E332E061157105A0
:102DC00091F389E090E02BE432E06130710559F332
:102DD000C0CF82E190E02BE532E0E5CF8BE390E0DD
:102DE00020E232E0E0CF80E189BD82E189BD09B413
:102DF00000FEFDCF8091D8008F7D8093D800809118
:102E0000E00082608093E0008091E00081FDFCCFD3
:102E10000895AF92BF92CF92DF92FF920F931F93CC
:102E2000CF93DF936C01EB018A010E946818F82EA2
:102E3000811123C00115110539F0F80180819181BC
:102E4000C81BD90BC80ED91EB12CA12C2097A9F0F4
:102E50008091E80085FD22C08091E8008E77809304
:102E6000E80001151105A1F0F80180819181A80EFB
:102E7000B91EB182A08285E0F82E8F2DDF91CF910F
:102E80001F910F91FF90DF90CF90BF90AF9008956A
:102E90000E9468188823D1F2F82EEFCFF6018191B5
:102EA0006F018093F1002197FFEFAF1ABF0ACECFD9
:102EB000FC018091BE029091BF0286179707A0F097
:102EC0006115710529F49091E8009E779093E800D0
:102ED00090E06115710551F4911108C08091E800EE
:102EE00082FF34C080E00895BC01F2CF8091B70228
:102EF0008823C1F18530C1F18091E80083FD30C0A5
:102F00008091E80082FDEACF8091E80080FFE1CF68
:102F10008091F3002091F200382F6115710519F0AE
:102F20002830310558F091E02830310509F090E063
:102F30002091E8002E772093E800CBCF81918093F9
:102F4000F100615071092F5F3F4FE7CF8091B702C9
:102F5000882341F0853041F08091E80083FFBECFA7
:102F600081E0089582E0089583E00895FC01809156
:102F7000BE029091BF0286179707A0F061157105F8
:102F800029F48091E8008E778093E80090E0611545
:102F9000710551F4911108C08091E80082FF35C09D
:102FA00080E00895BC01F2CF8091B7028823C9F177
:102FB0008530C9F18091E80083FD31C08091E8003F
:102FC00082FDEACF8091E80080FFE1CF8091F3009D
:102FD0002091F200382F6115710519F02830310564
:102FE00058F091E02830310509F090E08091E80038
:102FF0008E778093E800CBCF84918093F100319657
:10300000615071092F5F3F4FE6CF8091B70288234F
:1030100041F0853041F08091E80083FFBDCF81E031
:10302000089582E0089583E00895982F973028F05E
:103030008F708093E90081E008959093E900242F38
:10304000762F50E0981731F07091EC002091ED0050
:103050005091F00021FD02C09F5FE8CF3091EB005E
:103060003E7F3093EB003091ED003D7F3093ED00DB
:103070003091EB0031603093EB007093EC002093C3
:10308000ED005093F0002091EE0027FDE5CF80E0A9
:1030900008958091B80287FF13C08091E80082FFF5
:1030A00006C08091E8008B778093E80004C080918F
:1030B000B7028111F2CF08958091B7028823D9F326
:1030C0008091E80080FFF8CF8091E8008E77ECCF08
:1030D0002091E4003091E50095E6A9012091EC00F3
:1030E000822F817020FF06C08091E80080FF06C01B
:1030F00080E008952091E80022FD1AC08091B70277
:10310000882389F0853089F08091EB0085FD0FC020
:103110002091E4003091E50042175307F9F29150F5
:10312000E1F684E0089582E0089583E0089581E067
:1031300008950E9408190E941019E0EEF0E08081C5
:1031400081608083E8EDF0E080818F77808319BC17
:10315000A7EDB0E08C918E7F8C9380818F7E8083F1
:103160001092B60208950F931F93CF93DF930E949E
:1031700008190E941019C8EDD0E088818F778883E4
:1031800088818068888388818F7D888319BC1092AC
:10319000B7021092B3021092B5021092B40200EE80
:1031A00010E0F80180818B7F808388818160888333
:1031B00042E060E080E00E941518E1EEF0E08081DE
:1031C0008E7F8083E2EEF0E0808181608083808169
:1031D00088608083F80180818E7F80838881806110
:1031E0008883DF91CF911F910F910895E8EDF0E072
:1031F00080818F7E8083E7EDF0E080818160808335
:1032000084E082BF81E08093B6020E94B3180895E3
:10321000E8EDF0E080818E7F80831092E2000895D7
:103220001092DA001092E10008951F920F920FB6EB
:103230000F9211242F933F934F935F936F937F933C
:103240008F939F93AF93BF93EF93FF938091E10090
:1032500082FF0BC08091E20082FF07C08091E100F5
:103260008B7F8093E1000E94741B8091DA0080FFC5
:1032700019C08091D80080FF15C08091DA008E7F40
:103280008093DA008091D90080FF96C080E189BDEB
:1032900082E189BD09B400FEFDCF81E08093B702D1
:1032A0000E945A158091E10080FF19C08091E200D0
:1032B00080FF15C08091E2008E7F8093E2008091B4
:1032C000E20080618093E2008091D8008062809368
:1032D000D80019BC85E08093B7020E946E158091DA
:1032E000E10084FF2BC08091E20084FF27C080E1D1
:1032F00089BD82E189BD89B5982F917080FFFBCF90
:103300008091D8008F7D8093D8008091E1008F7EDE
:103310008093E1008091E2008F7E8093E2008091B3
:10332000E20081608093E2008091B302882309F477
:1033300049C084E08093B7020E9477158091E10034
:1033400083FF29C08091E20083FF25C08091E100C6
:10335000877F8093E10082E08093B7021092B302EE
:103360008091E1008E7F8093E1008091E2008E7F6A
:103370008093E2008091E20080618093E20042E06D
:1033800060E080E00E9415188091F00088608093D2
:10339000F0000E946B15FF91EF91BF91AF919F914B
:1033A0008F917F916F915F914F913F912F910F90EE
:1033B0000FBE0F901F90189519BC1092B7020E9473
:1033C000681570CF8091E30087FD93E09093B7027A
:1033D000B3CF1F920F920FB60F9211242F933F93EA
:1033E0004F935F936F937F938F939F93AF93BF930D
:1033F000CF93DF93EF93FF93D091E900DF7080913B
:10340000EC00C82FC17080FDC0E81092E9008091E7
:10341000F000877F8093F00078940E942D1A10921C
:10342000E9008091F00088608093F000CD2BCF7090
:10343000C093E900FF91EF91DF91CF91BF91AF91E0
:103440009F918F917F916F915F914F913F912F91BC
:103450000F900FBE0F901F901895AAE2B0E0E3E323
:10346000FAE10C94A51B88EB92E02091F100FC019D
:103470002193CF01F2E0803C9F07B9F70E94971596
:103480008091E80083FF1EC18091B8029091B9023B
:103490009A3008F017C1E92FF0E0ED5CF34E0C9480
:1034A000901B803899F0823809F00CC18091BC02E1
:1034B0008F70873008F006C18093E9008091EB009F
:1034C00085FB882780F91092E90006C08091B4023C
:1034D0009091B502911182609091E800977F90934E
:1034E000E8008093F1001092F1008091E8008E775F
:1034F000E5C0882309F4D3C0823009F0E3C080918D
:10350000BA028111D6C08091BC028F702FEF280FB4
:10351000263008F0D7C08093E9002091EB0020FF0F
:10352000C8C0933031F48091EB0080628093EB004F
:10353000C0C09091EB0090619093EB0021E030E0EF
:1035400001C0220F8A95EAF72093EA001092EA0060
:103550008091EB008860EACF8111B4C01091BA026B
:103560001F778091E3008078812B8093E300809126
:10357000E800877F8093E8000E9449188091E80066
:1035800080FFFCCF8091E30080688093E30082E0BD
:10359000111183E08093B70295C08058823008F003
:1035A00091C08091BA029091BB028C3D23E09207BA
:1035B000A1F583E08A838AE289834FB7F894DE011C
:1035C000139620E03EE051E2E32FF0E050935700E5
:1035D000E49120FF03C0E295EF703F5FEF708E2F04
:1035E00090E0EA30C0F0C7968D939D932F5F243111
:1035F00059F74FBF8091E800877F8093E8006AE227
:1036000070E0CE0101960E9458178091E8008B77F8
:103610008093E80057C0C096E7CF6091BC027091DC
:10362000BD02AE014F5F5F4F0E949816BC01892B0F
:1036300009F448C09091E800977F9093E800898151
:103640009A810E94B617E1CF8038E1F58091E800B9
:10365000877F8093E8008091B3028093F10045CF8B
:10366000811130C09091BA02923060F58091E800EB
:10367000877F8093E8009093B3020E94491880915D
:10368000B302882311F084E005C08091E30087FD38
:10369000FACF81E08093B7020E94821513C0809117
:1036A000BA02813079F481E0933009F080E08093B0
:1036B000B5021092E9008091E800877F8093E800CE
:1036C0000E9449188091E80083FF0AC08091E800B9
:1036D000877F8093E8008091EB0080628093EB000D
:1036E000AA96E3E00C94C11B0895CF938091B70292
:1036F0008823A1F0C091E900CF709091EC00892F50
:10370000817090FD80E8C82B1092E9008091E8005C
:1037100083FD0E942D1ACF70C093E900CF910895C8
:10372000EE0FFF1F0590F491E02D09942F923F9228
:103730004F925F926F927F928F929F92AF92BF92C1
:10374000CF92DF92EF92FF920F931F93CF93DF936D
:10375000CDB7DEB7CA1BDB0B0FB6F894DEBF0FBECA
:10376000CDBF09942A88398848885F846E847D8417
:103770008C849B84AA84B984C884DF80EE80FD8019
:103780000C811B81AA81B981CE0FD11D0FB6F8948F
:10379000DEBF0FBECDBFED010895FB01DC0104C00B
:1037A0008D910190801921F441505040C8F7881B39
:1037B000990B0895FB01DC0102C001900D9241506C
:1037C0005040D8F70895F999FECF92BD81BDF89A7F
:1037D000992780B50895A8E1B0E042E050E00C944C
:1037E000171C262FF999FECF92BD81BDF89A01973B
:1037F00000B4021639F01FBA20BD0FB6F894FA9A39
:10380000F99A0FBE08950396272F0E94F21B0E947B
:10381000F11B252F0E94F21B242F0C94F21B019602
:10382000272F0E94F21B0C94F11BDC01CB01FC0141
:10383000F999FECF06C0F2BDE1BDF89A319600B409
:103840000D9241505040B8F70895F894FFCFDB0334
:10385000DB030C040C0499043B043B043B04B50457
:10386000260535053505511A791A621B791A621B2E
:0A387000AC1ACD1A621B241B301B9A
:10387A001602E014E414591554154F15E31401E225
:10388A0000E900EA00B500B600B700CD008301CC1C
:10389A00008A0192019401210223022402250226B0
:1038AA000227022A02B300B4006F007000818283EB
:1038BA00E200E900EA00B500B600B700CD008301D6
:1038CA00CC008A01920194012102230224022502DA
:1038DA00260227022A02B300B4006F007000818218
:1038EA008332F4F5F6F794969790339192F1343542
:0438FA009395310071
:020000020000FC
:047000000C948D3E21
:047028000C94B73DD0
:10702F0012010002FF010020EB03F42F0000010208
:10703F00030109021200010100803209040000005F
:10704F00000000000C03410054004D0045004C00AF
:10705F001603410054006D00330032005500340018
:10706F004400460055000C0331002E0030002E0066
:10707F0030000403090416010C0100000C0000018C
:02708F006C7F14
:1070920012BD01BDF89A00B5089501E00895F9996D
:1070A200FECF12BD01BD20BDFA9AF99AF6CFF99929
:1070B200FECF0C944938F80104910895F8013491F7
:1070C20031962491890108950091610000930C0189
:1070D20000E80093610001E00093610005BF02E057
:1070E20005BF0C9486380091D70001600093D70049
:1070F200A89507EF04BF0091600000610093600053
:1071020000E00093600001E008950E94AA3D0E9401
:10711200B53DFDCF0CD00F7708D0006806D00061D6
:1071220004D0016028D0789408950093D80000918B
:10713200D8000895FCDF00621ED04CD009B500FFD4
:10714200FDCFF5DF0F7D17D00091E0000E7F009399
:10715200E0000091E000077F0093E0000091E20070
:1071620001600093E2000091E20008600093E200F7
:1071720078940C94743B0093D800089500910D010B
:10718200002359F40091D90000FF07C0D0DF006846
:10719200F2DF01E000930D01CDDFE0E2F2E00081D9
:1071A200018100FF0DC0008111811E7F11830083C8
:1071B20001E00093EA0000E00093EA0000931E025F
:1071C20000E00093E9000091E80003FF02C00E9482
:1071D200F23B0895A89539D000E40093600000E0E6
:1071E200009381000093800010E0009385000093DB
:1071F200840001E006BB00918100036000938100DE
:107202000091600007FFFCCF00E80093600010933C
:107212008100A89507EF04BF18D010936000209159
:1072220084003091850010938100109380001093A8
:1072320085001093840001E006BB2D3D354010F01F
:1072420002E101C002E009BD089500916000006101
:107252000093600008950E94AD3E239741D100E063
:1072620000930901B5D104811581012B51F437D165
:1072720000910701002309F4B9C000E0009307015F
:10728200B5C058D102FFFDCF37D1068335D1009367
:107292000F0132D1009310012FD1009311012CD193
:1072A2000093120129D10093130102852091130149
:1072B20030911201409111015091100116811A95DD
:1072C20041F01250A9F01A9599F11A9509F473C078
:1072D2008BC010910F01113011F411E001C010E0C8
:1072E200138799D00C3F11F414D17FC077D17DC0A0
:1072F20092D010910F01112329F01A9549F01A9595
:10730200A9F073C010E013870C3F09F06EC0ECCFF8
:1073120056D103C04CD109F468C00D911C9144D1DF
:107322000F3FC1F305E0009309015FC011E0EBCF0D
:10733200D2D029F00250E1F10A9541F056C0FDD0B9
:107342000E94A33F0FEF00930A014FC0552319F08B
:107352005A9579F04AC04ED00DEF04BF74D0EAD0EE
:1073620003FFFDCF67D051D04AD008E00093600000
:10737200FFCF40D068D0DED003FFFDCF5BD03FD03F
:1073820044D00FEF1FE004C009811A810150104060
:1073920009831A8309811A81012BB1F700E800934E
:1073A200610000910C01009361000C940000FFCF7A
:1073B20001E003871AC08FD019F00A9539F015C081
:1073C200535098F4BAD002E000870FC0505339F0FE
:1073D2005A9541F05F52B1F35A95A1F306C002E00B
:1073E2000883F0CF01E0FCCFA8D079D02396E4E067
:1073F2000C94BA3E01E005BF00E005BF089500917C
:10740200D8000F770093D800089509B50D7F09BD04
:1074120000E009BD08955183408333832283109194
:10742200E8001B7F1093E8001091E8001F7710938B
:10743200E80008955DD053D0F8940091E000016017
:107442000093E000089579D04AC0219749D0009175
:107452000601035019F00250B9F00BC03CD021F0E4
:107462000A9559F00A9529F400910A010C3F19F482
:1074720050D02196089567D0FCCF0091010100936E
:10748200F100009100010AC01091100124D019F0FE
:107492000A9549F0EECF135018F400E00093F10082
:1074A2001ED044D0E6CF105339F01A9539F01F524E
:1074B20041F01A9541F0F4CF08E5F0CF00E006D094
:1074C200EDCF02E0FCCF04E001D0E8CF10E020E0F5
:1074D20030E00C94113F00910F010023089521C068
:1074E2000BD008D007D00093040106D00093050109
:1074F20021D00BC000D008830091F10008950091C3
:10750200EB0000620093EB0015D0077F0093E800C8
:107512000895F5DF02E00093080103E000930901FA
:10752200089559D007D000FFFDCF089503D002FF80
:10753200FDCF03C00091E8000895FCDF0B7FE6DF7A
:10754200F9DF0F77E3CF0E94AC3E42D038D006C0BD
:107552002BD00093F1002BD059F43DD0082F092BEA
:10756200A9F0E8DF02FD12C0E5DF00FFFDCF4424F1
:10757200042D4394003289F300910B0100230D91F5
:107582001C9131F311970E945838E3CFD3DF00FFEB
:10759200FDCF21D0CFDF00FFFDCFCCDF02FFFDCF3B
:1075A200CCDFE5E00C94B93E11970C945C380D9158
:1075B2001C910F5F1F4F1C930E93019708958281B8
:1075C200938100811181801B910B0196DF01089547
:1075D200E0E0F1E00895AEDF0E7F98CF0E94A93E71
:1075E200F7DF80819181A081B181AF710481158122
:1075F20000521040048315830AC000910B0100233E
:1076020031F4A301920103E911E00E943B3F47D00C
:10761200B8F1662477242C0111C06EDFF301ED5618
:10762200FE4F008301E0600E00E0701E01960091A3
:10763200F200002311F033D0B8F47FDF30D0E8F24B
:10764200F301B096E238F040C0F674DF02FFFDCFDE
:107652000091F200BDDF24813581201B304024835C
:107662003583E5CF49DFAA95AA23E1F700910B0103
:10767200013099F62091F1008C010E945038D6CF4A
:1076820004811581012B21F055DF02FFFDCF55DF6B
:10769200A2DF50DF00FFFDCFE8E00C94B63EE0E051
:1076A200F1E0028113810817190708952091EB0078
:1076B20021602093EB000093EC000091ED0002703A
:1076C200012B0093ED000091ED0002600093ED00AC
:1076D2001091EE00012F000F00E0001F0895412FCE
:1076E2000093E900089500E009D000FD05C000E024
:1076F200F7DF10E202E0DACF00E00895F1DF009157
:10770200EB0008950F770132A9F5112369F11A955B
:1077120059F01A9561F01A9569F01A95F9F01A95CF
:10772200C1F01A95D9F024C00E942C3920C00E94C1
:10773200263A1DC029D00091090123D001E01FD0B3
:1077420020D0009108011BD00E94923A0E94973AE1
:107752000EC01AD00091080114D007C002E00093B5
:10776200080100E0009309010FD00E94923A03C081
:107772000E94803A02C001E0089500E0089501D01D
:1077820000E00093F10008950091E800077F009364
:10779200E800089508950350F9F4112339F01A9579
:1077A20051F01A9581F01A9599F016C004E016D09E
:1077B20001E810E703C011D003E510E7E7E1F2E0CA
:1077C20000831183D8CF06E109D00FE510E7F6CF89
:1077D20004D005E710E7F2CFD0CF0CE000931A02F5
:1077E200089527D120D100931D02E1D0212F11232A
:1077F20029F12A95E9F02250F1F0225099F02A95C8
:1078020049F0225061F02A9581F02A95E1F02A95FB
:10781200E9F023C0003809F44FC00C94833B0038D0
:10782200E1F7C8C00023C9F71EC00023B1F72DC07D
:10783200033098F744C1033080F70BC1003868F376
:10784200033858F7C9C0013841F77BC1013051F400
:10785200FCD0BFD000FD06C0FCCF0E94833B0023BA
:1078620009F41ED008951091E3001078DCD00F7750
:10787200012B0093E300E9D0ACD000FFFDCF0091D3
:10788200E30000680093E300089591D0123040F4C1
:107892000FD010931E02DAD000911E020C94CB3B43
:1078A2000091EB0001D004C000620093EB00089548
:1078B2000091E800077FC0C0BA93AA93229700E024
:1078C2000093190274D0AFD0202F2A9519F02A956F
:1078D200E9F022C002E100931A020FE210E7E7E1A9
:1078E200F2E0008311839DD008839DD00983E0DFFD
:1078F20000911A0210E02881398102171307A8F4B7
:107902000F7181F401E00093190211C002E10093AA
:107912001A0201E410E7E3CF0E94CC3B002319F7DF
:107922008ED040C01093190202C020931A027ED05A
:10793200A7E1B2E001C08AD000911A02002309F146
:1079420048D004FD1EC045D000FD03C042D004FF54
:10795200FACF10E0012F1395003281F0ED91FC91E6
:107962001197049133D02D913C912F5F3F4F3C935F
:107972002E93FD0103810A95038361F72AD004FF48
:10798200DACF00911902013039F423D004FD04C08A
:1079920020D000FFFDCF5AD01CD004FFFDCF46D02F
:1079A20018D00B7F49D02296A991B99108951091D0
:1079B200F10008957DDF00911E0208D047D009D062
:1079C2000F773AD006D002FFFDCFBFC00093F1007F
:1079D20008950091E800089524D010911D021058D6
:1079E20029F01A9589F01A9591F019C061DF00917A
:1079F2001C02ECDF00E0EADF29D0EBDF02FFFDCF63
:107A020018D0E7DF0F770CC053DF00E0F2CF51D080
:107A12000F7710E0F801E55EFD4F0081EACF0FD04D
:107A22000BC001D000D00091F1000895D2DF0F7E8B
:107A320003C00091E8000B7F0093E80008950091D5
:107A4200EB0032DFC6DF077F089532DFC2DF0E7F31
:107A5200F3CF00911D02002329F00A9509F10A953E
:107A620031F01EC0E0DF0A9561D0D9F41AC061D0AE
:107A7200B9F4D9DF0F7711F416D01BD00093E900C7
:107A82001091EB0010FF0BC00ED010E01093E90034
:107A920021E0F801E55EFD4F20834FD003C042D0C4
:107AA20045D0CFDFC9CF1091EB0010621093EB00ED
:107AB20008951091E800177F1093E800089500914F
:107AC2001D02002311F4AFDF02C0013011F4B7DF51
:107AD200B3CF023031F52DD019F52091F1002F7777
:107AE2002093E90023D000FF19C081F01FD000616C
:107AF200DCDE01E010E0422F0E949F3E0093EA008C
:107B020000E00093EA0012D00860CFDE0BD030E034
:107B1200F901E55EFD4F008310D0DACF03D0D7CF55
:107B2200BFDE089500E00093E90008950091EB00A4
:107B3200089579DF3CDF00230895BADE4ADF0E7F25
:107B4200089583DF46DF02FFFDCF73DF42DF0F7749
:107B520073CF0091D70001600093D7000E948B3849
:107B620000E000931F0208950C94BF388A93FA93A1
:107B7200EA933A922A921A920A927A936A935A93BF
:107B82004A933A932A931A930A938FB70091DA0091
:107B920000FF24C00091D80000FF20C00EEF009328
:107BA200DA000091D90000FF11C001E000930D013D
:107BB200ABD0026096D09AD00860A2D00E949B38C7
:107BC2000091E0000E7F0093E00008C000E0009307
:107BD2000D0100931E0298D0046083D07FD002FF73
:107BE20005C084D002FF02C00BEF75D077D000FF32
:107BF2001BC07CD000FF18C001E000930E016AD0C8
:107C020083D000626ED00EEF6FD0006179D06ED05B
:107C12000F7D76D00091D80000620093D80009B59C
:107C22000D7F09BD00E009BD59D004FF20C05ED020
:107C320004FF1DC009B500FD05C00E94EB3809B55F
:107C420000FFFDCF0091D8000F7D0093D80042D0F5
:107C520000910E01002359F04CD00FEE45D00F7E5B
:107C620052D000643ED042D001604AD042D036D0D9
:107C720005FF0FC03BD005FF0CC000E000930E01D2
:107C820035D00F7E3DD00FED2FD00F7D3CD0006858
:107C920028D024D003FF0DC029D003FF0AC000E082
:107CA20000931F0207EF17D00E94743B2DD0116082
:107CB20018D08FBF09911991299139914991599100
:107CC200699179910990199029903990E991F991E6
:107CD200899118950FEE0093E10008950091E1005B
:107CE20008951183008308950093E1000091E2005A
:107CF20008950091E200006203D00091E200086062
:107D02000093E2000895FCDFE0E2F2E000811181DD
:107D1200089500008895FECF01E60DBF02E00EBF78
:107D2200C2EED2E00E947438002311F00E94D33ECA
:107D32000E9465380E948A3E0C948A3E4A951AF047
:107D4200000F111FFBCF0895BA92AA929A928A92BB
:107D52007A926A925A924A92BA93AA939A938A937D
:107D62000895BB84AA84998488847F806E805D8014
:107D72004C80BB81AA8199818881F0E00FB6F8948A
:107D8200CE0FDF1F0FBE089520E006D0E9F7089559
:107D9200259102D0E9F708952D9301501040202F2C
:107DA200212B089585E890E7FC0105911491FC01CF
:107DB2003296A591B491FC01349625913491422FCB
:107DC200432B19F0F901E4DF01C0DEDF069610E76C
:107DD2008139910748F308952F930CD02F9101D048
:107DE20008953CD0F12FE02F45E047BFE89536D00B
:107DF20012D0089533D0F12FE02F43E047BFE8952A
:107E02002DD008952BD0F12FE02F43E047BFE89506
:107E120025D001D0089522D041E147BFE8951EC088
:107E22001DD0F12FE02F41E247BFC895002D16C0AB
:107E320015D0F12FE02F49E047BFC895002D0EC0A5
:107E4200F32FE22F012E102E41E047BFE89506C026
:107E520005D0002E29E027BFE89500C0022E27B7E3
:107E620020FDFCCF202D0895022E27B726FDFCCF42
:107E7200202D08950E94A53E22974801C901DA01EA
:107E820010C05BD001E0A00E00E0B01E00E4A0161E
:107E920000E0B00608F440C0830120E030E00E9418
:107EA200F23E0A2F0B2B09F440C0082F0F7710E087
:107EB2002C01401A510A320100E4A02E03C00A2FFD
:107EC2000B2BE1F04816590680F0F40101914F01A5
:107ED2000983119729F001914F010883119711C06D
:107EE200F2013196049108830CC0F20104910983D6
:107EF2003196E817F907A1F7F401EDCF1BD00883FB
:107F020019839201088119810E94213F16D0AA94F7
:107F1200B1F62301AA24BB240DD0312F0F3F3F4FCE
:107F220009F4AFCF83011DD0B7CF01E02296ECE078
:107F32000C94B23E82010C945F3802E0400E00E0E5
:107F4200501E08959A938A9380E090E08C0109D0A4
:107F520080589F4F8F3F0FE69007C0F38991999108
:107F6200089520E030E00C94FB3E00000000000089
:067F720000000000FC000D
:107FE4000C94ED3E0C94113F0C94193F0C94213FDA
:0C7FF4000C94F23E0C94033F0C94293FC7
:040000030000700089
:00000001FF