:100000000C9494020C94CC020C94CC020C94CC0270
:100010000C94CC020C94CC020C94CC020C94CC0228
:100020000C94CC020C94CC020C94F01F0C94C420C1
:100030000C94E11A0C94CC020C94CC020C94CC02DB
:100040000C94CC020C94CC020C94CC020C94CC02F8
:100050000C94CC020C94681B0C94CC020C94CC0233
:100060000C94CC020C94CC020C94CC020C94CC02D8
:100070000C94CC020C94CC020C94CC020C94CC02C8
:100080000C94CC020C94CC020C94CC020C94CC02B8
:100090000C94CC020C94CC020C94CC020C94CC02A8
:1000A0000C94CC020C94CC020C94CC0229001F00BE
:1000B00021002300250027002D002E002A002B0000
:1000C0001A0015001C000C0013002F003000310036
:1000D000E200160009000B000E0033003400280077
:1000E0000000E1001B001900110036003800E50097
:1000F000000001531D00E000E3002C00E700015167
:100100000151000000000400060005001000370047
:100110000000000000000000140007000A000D00AD
:100120000F0000000000000000001E000800170083
:100130001800120000000000000000000000200075
:10014000220024002600000000000000350001000D
:1001500001000100010001000100CB5CCA5C01004C
:10016000C35C52000100010001000100C55CC45CD9
:100170000100010051000100010001000100010027
:100180000100000001000100010001000100010068
:100190000100000001000100010001000100010058
:1001A00001000100000000005000010001000100FA
:1001B0000100000000000000000001004F000100ED
:1001C000010001000000000000000000010001002B
:1001D000010001000100000000000000000000001C
:1001E000010001000100010000000000000001000A
:1001F000643214643214783C1E1E140A052223252E
:100200002628292A2C2D2F3032333536383A3B3DDB
:100210003E4042434547494A4C4E50515355575929
:100220005A5C5E6062646668696B6D6F7173757746
:10023000797B7D7F81838587898A8C8E9092949645
:10024000989A9C9E9FA1A3A5A7A8AAACAEAFB1B354
:10025000B4B6B8B9BBBCBEBFC1C2C3C5C6C7C9CAA4
:10026000CBCCCDCED0D1D2D2D3D4D5D6D7D7D8D966
:10027000D9DADADBDBDBDCDCDCDCDCDDDDDDDDDCC4
:10028000DCDCDCDCDBDBDBDADAD9D9D8D7D7D6D5D6
:10029000D4D3D2D2D1D0CECDCCCBCAC9C7C6C5C398
:1002A000C2C1BFBEBCBBB9B8B6B4B3B1AFAEACAAE5
:1002B000A8A7A5A3A19F9E9C9A98969492908E8C95
:1002C0008A89878583817F7D7B79777573716F6D6F
:1002D0006B6968666462605E5C5A59575553515049
:1002E0004E4C4A4947454342403E3D3B3A383635FD
:1002F0003332302F2D2C2A292826252322000101D4
:1003000001010101010101020202020202020202D4
:1003100003030303030303030404040404040405A4
:100320000505050506060606060707070707080868
:100330000808090909090A0A0A0B0B0B0C0C0C0D19
:100340000D0D0E0E0E0F0F0F1010111111121213B2
:10035000131414151516161717181819191A1A1B2D
:100360001B1C1D1D1E1E1F2020212222232424258C
:100370002626272829292A2B2C2D2D2E2F303132C5
:1003800032333435363738393A3B3C3D3E3F4041D5
:1003900042434445464748494A4C4D4E4F505153BD
:1003A00054555658595A5B5D5E5F61626465666874
:1003B000696B6C6D6F7072737577787A7B7D7E80F8
:1003C00082838587888A8C8E8F91939596989A9C44
:1003D0009EA0A2A3A5A7A9ABADAFB1B3B5B7BABC58
:1003E000BEC0C2C4C6C9CBCDCFD1D4D6D8DBDDDF29
:1003F000E2E4E7E9EBEEF0F3F5F8FAFDFF1C036841
:1004000000650064006700650068006F0067005FBA
:10041000006C0069007400650000000C03310031BD
:10042000006B006200640000000403090409023B41
:1004300000020100A0FA0904000001030101000903
:100440002111010001224000070581030800010974
:100450000401000103000000092111010001226DC7
:1004600000070582032000011201000200000008BD
:10047000FFFFA10000010102000105010980A101A7
:10048000850319012AB700150126B70095017510DB
:100490008100C0050C0901A101850419012AA002EF
:1004A000150126A002950175108100C005010906FD
:1004B000A1018506050719E029E715002501950822
:1004C000750181020507190029EF1500250195F036
:1004D000750181020508190129059505750191022B
:1004E000950175039101C005010906A101050719D0
:1004F000E029E71500250195087501810295017530
:100500000881010507190029FF150026FF0095063F
:1005100075088100050819012905950575019102E5
:10052000950175039101C00011241FBECFEFDAE0E1
:10053000DEBFCDBF04B603FE18C0809118039091B2
:100540001903A0911A03B0911B038730904BA74069
:10055000B04B59F4109218031092190310921A0319
:1005600010921B03E0E0F8E3099511E0A0E0B1E090
:10057000E0E8F7E402C005900D92A03AB107D9F780
:1005800023E0A0EAB1E001C01D92A831B207E1F773
:100590000E9457110C94A8230C94000081E0089548
:1005A00081E008950E94D002089508950E94D50226
:1005B0000895A5E0B0E0EFEDF2E00C940923498343
:1005C0005A833091A70189819A81311119C066231C
:1005D00099F0222389F00E944708182F682F8981FB
:1005E0009A810E94230869817A81812F0E94B90E25
:1005F0002596E3E00C9425230E943508182FF3CFAD
:100600000E94470869817A81F1CFFC01262F408141
:1006100051816281738184810E94D902089581E0B1
:100620000895CF93DF93EC0160E00E940503BE01C3
:100630000E94D602DF91CF9108950E94FC0F089589
:100640000E940010089508950E94EE060E94230360
:100650002FEF84E39CE0215080409040E1F700C000
:10066000000008950E9424030E948C1B08950E949C
:1006700024030E94B01B08950F931F93CF93DF9321
:100680008C0161E00E940503EC01B8010E94D202D6
:10069000811106C080E0DF91CF911F910F910895E5
:1006A000B801CE010E942A198823A1F3B801CE0116
:1006B0000E942E17882371F3B801CE010E949C1866
:1006C000882341F3B801CE010E944616882311F316
:1006D000F8018281882361F0CB35FDE5DF0701F168
:1006E00058F4C115ECE5DE0791F0CF3DDC4591F003
:1006F000C8010E94CE02CFCFCD358DE5D80769F075
:1007000090F0C83ADD45A1F70E943703C3CF0E949D
:100710003203C0CF0E94010DF7CF0E943F0CE8CFFB
:100720000E94490CE5CF0E944D0CE2CF0E94BD1AF9
:100730000E94B30308950E94B7030E94C21A08954D
:1007400008950E94A003089581E008950E94A403E3
:1007500008950895CF93C82F0E94A1038C2F0E9463
:10076000A603CF91089580E00E94AA0308950E94F5
:1007700086190E94AA030895CF930E948619C82F54
:100780008091A2018C1779F0C093A2010E944D1BA9
:100790006093A3017093A4018093A5019093A60197
:1007A0008C2F0E94AA03CF910895ABE0B0E0EBED4F
:1007B000F3E00C940A234F83588769877A878B87E5
:1007C00061110E948A0B1E821D8285E0FE01379610
:1007D000DE01119601900D928A95E1F78C819D8141
:1007E000892B61F449815A816B817C818D819E8145
:1007F0000E94B30A2B96E2E00C94262389819A8109
:1008000089238F3F79F3CE0101960E940F03811156
:10081000E9CFF0CFFC01808191810E947908089591
:10082000CF93C82F8823B9F08CEF8C0F813AA8F4AE
:100830006C2F80910001909101010E94ED19882395
:1008400029F08C2F0E944A0B0E94AB0B8C2F0E9428
:10085000420B0E94AB0BCF91089580E28C0F883041
:1008600048F4C77081E001C0880FCA95EAF70E947A
:100870006D0BEFCFEBE5EC0FE33040F4F0E0EC5B19
:10088000FE4F808190E00E94AD19E5CFC85AC73174
:1008900010F7EC2FF0E0EE0FFF1FEA5EFE4F8081B5
:1008A00091810E94C319D7CF882339F19CEF980F0B
:1008B000913A28F40E944A0B0E94AB0B089590E2F3
:1008C000980F983050F4877091E001C0990F8A9585
:1008D000EAF7892F0E94730BEFCF9BE5980F9330B7
:1008E00028F490E080E00E94AD190895885A87317D
:1008F00020F490E080E00E94C31908951F93CF93E5
:10090000DF93182FEB010E941004209739F4812FF8
:100910000E945404DF91CF911F9108958FE99FE0C9
:100920000197F1F700C000002197EFCF70E060E081
:10093000893311F460E570E00E947E0408958823F5
:1009400021F00E946D0B0E94AB0B0895882321F0CB
:100950000E94730B0E94AB0B0895B0E0A0E0E3EBA4
:10096000F4E00C9403236C01D62FC72FFC011281F5
:10097000F580F2949FE0F9220E94630BE82E882311
:10098000B9F0E12E1123A1F08C2F807F803421F06B
:1009900080E28D0F8830D0F08091B00282FF16C0C7
:1009A00082E00E940E0C0E94630B91E0E82EE92683
:1009B000BC2EB2948FE0B822FBE0FB1508F468C0AF
:1009C000EB2DF0E0E655FC4D0C94C322E12CF0CF6A
:1009D0000C2F0F70C07F11F00295007F112399F04A
:1009E000002359F080E28D0F883010F0D11107C03C
:1009F000802F0E946D0B0E94AB0B8D2F41C0802F6A
:100A00000E947D0BF8CF8D2F0E945404002309F41F
:100A10003FC080E28D0F883010F0D11104C0802FCC
:100A20000E94730B03C0802F0E94830B0E94AB0BAC
:100A30002FC00C2F0F70C07FC03211F00295007FC5
:100A4000DD2381F0D13009F463C0112309F46DC0B6
:100A5000FF2009F463C0F601858180FFCECF8F703F
:100A600085835CC08091B00282FD33C0112359F0B0
:100A7000002329F0802F0E946D0B0E94AB0B80E0B9
:100A80000E94100405C080E00E9454040111C7CFE9
:100A9000EB2DE850FF0B349720F40E9486190E943A
:100AA000AA03EE2089F00E945F0B80FD0DC0F601C5
:100AB00012820E94590B0E948107C6010E94B20651
:100AC0000E94590B0E949107CDB7DEB7E9E00C9464
:100AD0001F23112389F0F11006C00E948D0B802B7B
:100AE0000E949F04D5CF21E0F212F7CF0E948D0B18
:100AF000802B0E94940BCCCFF11006C00E94A10B5A
:100B0000802F0E94A604C4CF31E0F31609F2F6CF7D
:100B1000112331F085E08F1508F4BACF802FE0CF94
:100B200094E09F1508F4B4CFEBCFFF2049F3D933FD
:100B300049F4FFEF27EE33E0F15020403040E1F779
:100B400000C000008D2F0E945404A2CF8C2F8695E8
:100B50008695837069F0813009F09ACF8D2F9C2F94
:100B60009370111102C090E080E00E94C31990CFF1
:100B70008D2F9C2F9370111102C090E080E00E9495
:100B8000AD1986CF8C2F8370A1F5111181CF4D2F18
:100B9000429546954770440F440F2D2F2F7030E03B
:100BA000042E02C0220F331F0A94E2F790E080E087
:100BB000D4FF09C08FE090E002C0880F991F4A95CA
:100BC000E2F780959095C695C695C370822B932BBE
:100BD000C23049F058F4C13019F00E944F0758CF85
:100BE0000E94460755CF0E94580752CF0E944307E4
:100BF0004FCF8695112311F08C2F8170882309F433
:100C000047CF4D2F429546954770440F440F2D2FE7
:100C10002F7030E0042E02C0220F331F0A94E2F737
:100C200090E080E0D4FF09C08FE090E002C0880F20
:100C3000991F4A95E2F780959095C695C695C37021
:100C4000822B932BC23049F058F4C13019F00E9426
:100C5000BC071ECF0E94B3071BCF0E94C50718CF49
:100C60000E94670715CFCF70112329F08C2F0E94A7
:100C700081078D2F35CF8D2F0E94A6048C2F0E94C7
:100C8000910706CFD23F51F160F4D03FB9F0D13F88
:100C900081F0112309F449C0F110AFCE8C2F8F7170
:100CA00021C0D33F11F1D43FA1F78091B00282FD62
:100CB00026C08C2F8F71112311F314C0112349F01A
:100CC00084E08F1508F4E4CE8C2F8F710E94A30767
:100CD000DFCE95E09F1508F4DBCEF6CF8C2F8F7119
:100CE0001111CDCF0E948107D3CE112329F08C2F73
:100CF0008F710E947507CCCE0E947007C9CE112358
:100D000049F0CF718C2F0E94810763E08C2F0E94E5
:100D1000F00BBECE81E00E940E0CE1E0EF1508F072
:100D2000B7CE82E00E940E0CB3CEF11000CF8C2F14
:100D30008F71A5CF0F931F93CF93DF93EC01688141
:100D400079818A810E9484088C010E94CE070E94CA
:100D50004207B801CE010E94AD04DF91CF911F91EF
:100D60000F910895CF93DF93EC018B819C81892BA8
:100D700029F08881998189238F3F51F4DF91CF91A8
:100D80000895CE010E949A06CE010E941103F6CF6B
:100D9000CE010E943C038111F4CF0E94630B882393
:100DA00069F38A81882351F38091B00282FFE6CFF4
:100DB00082E00E940E0CE2CF90E080E00E94AD192C
:100DC00090E080E00E94C3190E948A0B0E94AB0B46
:100DD00008950E94520B0E94DC0608950E947A0B2F
:100DE0000E94E906089592959F70963091F058F40C
:100DF000925F9F70923058F4803F19F030F4883E33
:100E000030F481E008959A5FF4CF843FD1F380E01D
:100E10000895883EB0F3813FD1F7F3CFFC01838181
:100E20009481892B29F08081918189238F3F11F44E
:100E300080E00895808191810E9479080E94F306E4
:100E40000895A5E0B0E0E7E2F7E00C940A232596C8
:100E5000E2E00C942623A6E0B0E0E1E3F7E00C9496
:100E60000A232696E2E00C94262308950E94350773
:100E700008950E9436079093D7018093D6010E946F
:100E8000DC06089508950E94390708952091D6013F
:100E90003091D701822B932B0E943907089520911E
:100EA000D6013091D701822393230E9439070895F8
:100EB0002091D6013091D701822793270E943907CC
:100EC00008950E94350708950E94610708950E94C1
:100ED00064079093D5018093D4010E94DC060895A5
:100EE00090E080E00E946707089521E030E0A901CA
:100EF00002C0440F551F8A95E2F7CA010E94670796
:100F0000089521E030E002C0220F331F8A95E2F7F6
:100F10008091D4019091D501822B932B0E94670779
:100F2000089521E030E002C0220F331F8A95E2F7D6
:100F3000209530958091D4019091D50182239323FF
:100F40000E946707089521E030E002C0220F331F9E
:100F50008A95E2F78091D4019091D5018227932759
:100F60000E94670708952091D4013091D501822B0A
:100F7000932B0E94670708952091D4013091D501E9
:100F8000822393230E94670708952091D401309112
:100F9000D501822793270E94670708950895262F79
:100FA000277091E001C0990F2A95EAF723E0769522
:100FB00067952A95E1F7660F771F660F771FFA018D
:100FC000E60FF71F50E040E0682F70E08191DF01ED
:100FD00011979B01042E02C0369527950A94E2F7DB
:100FE000217021952827292328272C934F5F5F4FB5
:100FF0004430510559F70895A82FA77023E096951E
:1010000087952A95E1F7880F991F880F991FFB0193
:10101000E80FF91F50E040E080E0219130E00A2E17
:1010200002C0369527950A94E2F721703327042EE3
:1010300001C0220F0A94EAF7822B4F5F5F4F4430C2
:10104000510559F70895262F993070F4893060F4CE
:10105000682F70E089E0989F600D711D112448EAA7
:1010600051E0822F0E94CF070895292F993068F40C
:10107000893058F490E068EA71E039E0239F800DF0
:10108000911D11240E94FC07089580E00895B0E0AE
:10109000A0E0EDE4F8E00C9403237C010091D4017E
:1010A0001091D5018091D6019091D701082B192B71
:1010B000CFE0D0E0CC24C394D12CBC2EC6010C2EA2
:1010C00002C0880F991F0A94E2F780239123892B8D
:1010D00049F4219790F7B12C8B2DCDB7DEB7E9E01D
:1010E0000C941F23B7018C2F0E94D40E019789F313
:1010F000F3CFCF93DF93EC010E944708BE010E941B
:10110000D40EDF91CF9108951F93CF93DF93EB011E
:101110009091A701992339F0CB010E947908DF91C2
:10112000CF911F910895882369F0CB010E94470851
:10113000182F682FCE010E942308BE01812F0E9424
:10114000D40EEDCFCB010E943508182FF6CF1F9398
:10115000CF93DF93C091D80116E08091D9018C1311
:1011600004C0DF91CF911F910895D0E01C9FF00142
:101170001D9FF00D1124E652FE4F40815181628186
:101180007381848195810E942B072196C770E5CFDA
:1011900040910A0250910B0260910C0270910D0275
:1011A00080910E0290910F020E942B0708951F93C9
:1011B000CF93DF9380910F02807F09F049C0809127
:1011C0000C02882309F444C08091D801C091D90150
:1011D00060910A0270910B02A0910D02B0910E0273
:1011E000D62FD72316E0C81799F190E0109711F089
:1011F000DF3F19F401968770F6CF189F9001199F71
:10120000300D1124F901E652FE4F41814713F2CF10
:1012100040814613EFCF42814111ECCF438154818D
:101220004A1B5B0B483C510528F780910F028F70D9
:10123000806180930F02F901E152FE4F80818F702F
:10124000806180838AE092E00E94B2060E94A70833
:10125000DF91CF911F910895A1E1B0E0E2E3F9E0C1
:101260000C9402238C0185E0F801DE011D960190AB
:101270000D928A95E1F7F801E2808AE0C82E82E0BB
:10128000D82E60910D0270910E026115710509F45E
:101290004EC190910A0220910B02892F82238F3F29
:1012A00009F445C140815181A380B480F0900C02C3
:1012B000F501E61BF70BFF2009F4EAC080910F024D
:1012C000382F307FE83CF10508F0A3C031116DC024
:1012D000FE2C251316C0941314C0E11012C08F7099
:1012E000806180930F020E94C808C6010E94B20666
:1012F00080910F02F80185838F2D6196EAE00C94AE
:101300001E23A114B10429F0842F85238F3F09F0F7
:1013100027C180E0F82FF170DF2E80FF3CC0809164
:10132000D8012091D90136E0821315C04D875E8720
:101330008D859E850E947908292F22952F70223055
:10134000F0F0243018F59F70F1F0F8019581907F4E
:10135000D1F4D12C1EC090E0389FF001399FF00DE0
:101360001124E652FE4F6181651306C0608164134B
:1013700003C06281E6120FC001968770D5CF9F70BF
:1013800011F0882331F3805E883018F3C8010E9481
:10139000B206FD2CB1CFEE2009F4AECF80910F0242
:1013A000816080930F02F12CA7CF251306C0941300
:1013B00004C0F801EE2009F487C0C8010E940E079E
:1013C000882319F1EE2009F180910F02803270F02C
:1013D00020910A0230910B0238872F831986BB8631
:1013E000AA868C87CE0107960E94B20686E0F80195
:1013F000AAE0B2E001900D928A95E1F70E94D70829
:101400000E94C808FF24F39477CFC8010E94B20657
:10141000F9CF311113C07A2DB98AA88A6E2D898926
:101420000E9421078AE092E00E94B20686E0F6015F
:1014300011928A95E9F70E94C808B5CF25130FC00D
:1014400094130DC0E1100BC0F8018583C8010E9400
:10145000B20686E0F60111928A95E9F74DCFC801F0
:101460000E940E07882389F2EE2079F280910F0204
:10147000803208F4BBCF20910A0230910B023A83EC
:1014800029831B82BD82AC828E83CE010196ACCFB4
:10149000E83CF10508F03EC0FE2CEE2009F4B5CF83
:1014A00025132AC0941328C080910F0280FD1BC011
:1014B000982F907FC1F0F8018583903F31F0982FED
:1014C000907F905F8F70892B8583C8010E94B20640
:1014D00086E0F801AAE0B2E001900D928A95E1F76A
:1014E0000E94C80809CF86E0F801AAE0B2E00190A6
:1014F0000D928A95E1F700CFC8010E940E07811175
:1015000075CF80910F02816080930F02C8010E9405
:10151000B206F2CE7A2DB98AA88A6E2D89890E94E8
:10152000210786E0F60111928A95E9F7D9CFEE20DE
:1015300009F46BCFC8010E940E07F82E882309F426
:1015400064CF86E0F801AAE0B2E001900D928A959E
:10155000E1F78AE092E00E940A040E94D708C0CF17
:1015600081E08E25D7CEACE0B0E0E9EBFAE00C9458
:1015700009234F83588769877A878B879C87CE0199
:1015800007960E942C09882369F08A859B85892B00
:1015900039F04F815885842F85238F3F09F06BC028
:1015A00016E05FC086E0FE013796DE0111960190DD
:1015B0000D928A95E1F78A859B85892B89F38F8126
:1015C000988589238F3F61F32091D90130E0C901CB
:1015D0000196877099274091D8014817190671F430
:1015E0000E94EE061092D9011092D80186E0EAE03E
:1015F000F2E0DF011D928A95E9F7D2CF96E0929F43
:10160000D001939FB00D1124A652BE4FFE0131961A
:1016100001900D929A95E1F78093D9010E94A70855
:10162000BFCF819FC001112486529E4F0E942C097A
:101630008823E9F0E091D8011E9FF0011124E652C1
:10164000FE4F4081518162817381848195810E9426
:101650002B078091D80190E001968770992780939D
:10166000D8018091D8019091D9018913DACF2C96B5
:10167000E3E00C94252369857A858B859C850E94FF
:101680002B078ECF682F80910001909101010E945D
:101690006D1A0895682F80910001909101010E94B8
:1016A0007B1A089580910001909101010E94891A8E
:1016B000089580913002859585958595089580914E
:1016C00030028770089590913002977081E009F49C
:1016D00080E0089580915302089590915302892BE0
:1016E000809353020895809590915302982390938C
:1016F0005302089510925302089590915202892B3B
:10170000809352020895809590915202982390936D
:101710005202089510925202089580913102089564
:1017200008950E94900B08959091B00292FF08C016
:1017300090913102981721F0809331020E94910B11
:10174000089580913102882329F01092310280E0BF
:101750000E94910B0895CF93DF93E0910001F091E7
:101760000101809153028083E0910001F091010119
:10177000808190915202892B80839091310299232C
:1017800081F0E0910001F09101018081892B80833B
:1017900080910001909101010E94D91981110E944C
:1017A000A10BC0910001D091010140E250E060E145
:1017B00072E0CE010E944A23892B59F080E2FE019B
:1017C000A0E1B2E001900D928A95E1F7CE010E946E
:1017D0009319DF91CF91089508950E94EC0B08951D
:1017E0009091B00292FF11C098E0899F900111245E
:1017F000622B609330020E948107809130028595B0
:10180000859585950E94ED0B08950E9481070895A6
:101810001092300280E00E94ED0B0895909130020A
:101820008095892380933002282F277091F4282FE8
:10183000082E000C330B9217130659F09091B0024A
:1018400092FF07C08595859585950E9491070E9416
:10185000080C08959091B00292FB222720F92817D6
:1018600069F080FB92F99093B0028091AF02909161
:10187000B0020E947B0C82E00E940E0C08958091C1
:10188000B00282FB882780F991E089270E942A0C08
:10189000089581E00E942A0C089580E00E942A0C9D
:1018A00008956FEF7FEF90E080E00E94922308950B
:1018B00090E080E00E946E2321E0883E9E4F09F078
:1018C00020E0822F089582E090E00E946023089536
:1018D00083E090E00E9460230895CF9384E090E03D
:1018E0000E946023C82F82E290E00E946023982F1C
:1018F0008C2FCF910895CF93C92F682F84E090E06B
:101900000E9474236C2F82E290E00E947423CF9196
:101910000895AB01BC018FE090E00E9486230895FA
:10192000AB01BC0183E190E00E948623089560E052
:1019300070E0CB010E94900C089560E070E0CB0154
:101940000E94890C0E94970C089568EE7EEF90E04B
:1019500080E00E94922360E082E090E00E94742385
:1019600060E083E090E00E9474231092D70110920F
:10197000D60160E084E090E00E94742364E082E29B
:1019800090E00E94742360E085E090E00E94742360
:1019900060E086E090E00E9474236FEF87E090E0C3
:1019A0000E94742340E050E0BA0188E090E00E9479
:1019B000862360E08DE090E00E94742340E050E0D8
:1019C000BA0188E190E00E94862360E087E190E020
:1019D0000E94742340E050E0BA018CE190E00E9444
:1019E000862370E060E080E290E00E94922340E075
:1019F00050E0BA0188E190E00E9486230E949D0C8D
:101A000008950E94A50C0895682F8EE090E00E9432
:101A1000742308950E944D1B60936C0270936D02B5
:101A200080936E0290936F026093680270936902D4
:101A300080936A0290936B020895089508950E941E
:101A40001E0D089508950E94220D08958EEB9FE0CB
:101A50000E947C190E941D0D0E941F0D089581E0B7
:101A600008950E942F0D0895089508950E94340D41
:101A70000E94350D08950E94DD0F0E94A90308956C
:101A80000E94381B0E94B8100E943B0D0E948515D1
:101A90000E94230D0895AAE0B0E0E1E5FDE00C947A
:101AA000FF220E94CE1026E5822E22E0922E6401B3
:101AB00010E0F601E190F1906F01812F0E94031078
:101AC0001F5F193009F449C0E816F90691F38091B7
:101AD000700281FD0E940C100E94310D782E10E0E2
:101AE000812F0E9403107C01F401A190B1904F015D
:101AF0008A159B0561F1A826BF2400E0CC24C3947D
:101B0000D12CC5018C219D21892BC1F07720B1F00A
:101B10000E831F8321E0C7018C219D21892B09F4AD
:101B200020E028870E94411B8160782F9A8789874F
:101B30004E815F8168858A850E94D5030F5FCC0C3A
:101B4000DD1C0930F1F6F4013297F182E0821F5F6B
:101B5000193031F60E940A0D22C0E816F90609F084
:101B6000B6CF0E94411B8C01809154029091550286
:101B700008171907A1F08FEF89838A831B820E94BF
:101B8000411B8160782F9D838C8349815A816B81B1
:101B90008D810E94D50310935502009354020E9438
:101BA000B8150E94BC032A96EDE00C941B23CF933A
:101BB000DF930E94D90EEC01811522E59207E8F52A
:101BC000811531E5930708F0A3C0883E910510F513
:101BD000803E910570F5883A910570F4853A91053B
:101BE00008F078C08130910521F1009711F1049738
:101BF00000F5D0E0C0E01DC08F3B9105D0F7C85A7A
:101C0000D0E0CC0FDD1FC95BDE4F0990D881C02D1D
:101C1000D4640FC0811540E5940708F066C0C11573
:101C200080E4D80708F05EC0CE019A9581159F41E7
:101C300000F7CE01DF91CF910895811536E5930726
:101C400018F5811545E5940708F07BC0C11584E5BA
:101C5000D80708F071C09E01237033279C2F9695FA
:101C60009695C115D34508F458C0C1E0D0E002C034
:101C7000CC0FDD1F2A95E2F730E2939FC0011124BB
:101C8000C82BD92BDA68D5CFC1158AE5D80778F4E7
:101C9000C11529E5D20708F05EC0C11538E5D307A4
:101CA00008F4A7CFDC2FCC27C06FD06AC2CFCE01FB
:101CB00090568115904208F09CCF8D2F8F710E9415
:101CC0007B0F90E0982F882788279F719C012C2BF1
:101CD000E9013FC0C55AD0E0CB58DE4FC881D0E003
:101CE000D064A7CFDF70D06AA4CF8370992721E09A
:101CF00030E002C0220F331F8A95E2F7C695C695E1
:101D000080E2C89FE0011124C22BD32BDD6891CF64
:101D1000D82FCC27C16FD06A8CCFC1E0D0E002C0F1
:101D2000CC0FDD1F2A95E2F720E2929FC00111241B
:101D3000C82BD92BDC687DCFDC2FCC27C46FD06AB1
:101D400078CF0E947B0FC82FD0E0DC2FCC27CC2788
:101D5000DF71D0626ECF8C2F8F700E947B0F34E0CA
:101D6000D695C7953A95E1F7CF709C2FEC01D069D5
:101D700060CF972F7930A8F4693098F470E029E0AB
:101D8000929F600D711D1124FB0191E5899FE00D6B
:101D9000F11D1124EE0FFF1FE455FF4F8591949123
:101DA000089580E090E008950E94B90E0E94D70D3A
:101DB000089582389105B9F1B0F48133910509F4A1
:101DC0007DC048F48932910509F46DC08A329105CD
:101DD00009F47BC008958533910509F45FC0893308
:101DE000910509F10895833E9105D9F138F4803EBB
:101DF000910529F1823E910579F10895863E91057C
:101E0000D9F1873E910509F43EC0843E910541F524
:101E10002091B00221FF24C08091AF0284FD19C03F
:101E200087EE90E008952091AF02237009F05AC028
:101E30002091B00223FF14C089E290E00895209120
:101E4000AF0220FD38C03091B00230FF09C024FF3E
:101E500043C090E080E008952091AF0222FDF7CFCB
:101E600008952091AF0222FD3AC03091B00230FDBA
:101E700039C024FFF5CFEDCF2091AF0223FFF0CF83
:101E800024FDE7CFCDCF2091AF0223FD2EC03091AE
:101E9000B00231FFEECF84EE90E008952091AF02C2
:101EA00025FFDECFC9CF2091AF0225FD21C02091B3
:101EB000B00223FFD5CF89E390E0D2CF2091AF02CB
:101EC00026FFCECF8AE290E008952091AF0226FF50
:101ED000C7CF81E390E0089583EE90E0089582EE0D
:101EE00090E0089580EE90E0089586EE90E00895E9
:101EF00085E390E008959091AF0292FF06C0282FED
:101F000028712830F9F4877F846093FF06C0282F5A
:101F100028712831F1F4877E84612091B00220FF7E
:101F200006C0382F38713830D9F4877F816021FF9F
:101F300006C0282F28712831D1F4877E816194FD55
:101F4000877E0895282F24712430F9F68B7F8860CE
:101F5000DCCF282F2471243101F78B7E8861DDCFFF
:101F6000382F3171313019F78E7F8860E0CF282FFC
:101F70002171213121F78E7E8861E1CF80E00895C3
:101F80000E94510C08950E94CE102FEF86E791E039
:101F9000215080409040E1F700C000000E94CE1028
:101FA00080E00E94031080FF04C00E94C00F0E94C6
:101FB0008C1B08950E94C30F08950E94580C811134
:101FC00002C00E94010D0E94630C809370020E9467
:101FD0006D0C9093B0028093AF020E94DA0F0E94C2
:101FE000680C90E00E9443078091D4019091D50144
:101FF0000E946407089508950E94FB0F08950895B4
:102000000E94FF0F0895E82FF0E0EE0FFF1FED5341
:10201000FD4F808191810895089580EA8A95F1F7B6
:10202000089500C008950E940D100895F894E82FB7
:10203000E295EF70F0E031A1282F2F7081E090E061
:1020400001C0880F2A95EAF7982F9095932391A3C2
:1020500092A1892B82A378940895CF93DF93C1E84E
:10206000D1E089918F3F11F00E94161081E0CA38AB
:10207000D807B9F7C8E7D1E089918F3F11F00E94E6
:10208000161081E0C138D807B9F7DF91CF910895D4
:10209000AF92BF92DF92EF92FF920F931F93CF9375
:1020A000DF938C01D62EC62FD0E0CE018F579E4FE6
:1020B0007C01FC0120812F3F09F44DC0F894E22FF0
:1020C000E295EF70F0E031A12F7081E090E001C067
:1020D000880F2A95EAF7932F982B91A392A18095C8
:1020E000892382A378940E941110E8E7F1E041E887
:1020F00051E021E030E0B12CA12C61916F3FA9F1BA
:10210000A62FA295AF70B0E090968C9190E06F7082
:1021100002C0959587956A95E2F780FD26C0C901B2
:10212000A82AB92A220F331F4E175F0731F7F7018C
:1021300080818F3F11F00E94161061E0A114B1045C
:1021400009F460E08D2D0E941310CC0FDD1FC00F2D
:10215000D11FB982A882DF91CF911F910F91FF907B
:10216000EF90DF90BF90AF90089590E080E0D8CFDF
:102170000E942D1082E1E3ECF2E0DF01982F1D9226
:102180009A95E9F7E1EBF2E0DF011D928A95E9F714
:1021900089E00E9409110E941D030895A2E1B0E0A8
:1021A000E4EDF0E10C9407238E010F5F1F4F82E1F5
:1021B000F80111928A95E9F7F12C6F2DC8010E9460
:1021C0004810F394F9E0FF12F8CF42E150E0B80173
:1021D00081EB92E00E944A2321E0009709F420E07D
:1021E000892B41F082E1F801A1EBB2E001900D9260
:1021F0008A95E1F749E063EC72E081EB92E00E949E
:102200000A11182F0E942003812F6296E5E00C949A
:1022100023230895CF92DF92EF92FF921F93CF93E3
:10222000DF936C017B01C42F222349F081E080936E
:1022300073020E94411B909372028093710210916D
:10224000730211110AC010E0812FDF91CF911F910D
:10225000FF90EF90DF90CF90089580917102909160
:1022600072020E94591B059770F3D0E0CC0FDD1F5E
:10227000AE01B601C7010E944A23892B41F0AE018D
:10228000B601C7010E94572310927302DDCF10E000
:10229000FBCF0E94461D0E94400D0E94531D0895D1
:1022A0000E94581D0E944B0D0E94721D08950E94AD
:1022B000DA1A0E942C1D0E94260D0E9449110E94CC
:1022C00050110E94360DFBCFEF92FF920F931F9398
:1022D000CF93DF93EB01E82FD1110EC0442321F0FF
:1022E000F0E0E350FD4FE4916E2F7E2F8E2FCDB79F
:1022F000DEB7E6E00C9422230D2F10E0282F30E00B
:10230000442329F023503D4FF901249130E0F6E0B9
:10231000CF9FC0011124EFEFF0E0BF010E947922AE
:10232000AB018C2F90E0880F991FA5E5A49FB00109
:10233000A59F700D1124861B970B982F990F980F4E
:10234000BF01601B710B629FD001639FB00D729F34
:10235000B00D11248B2F9D9FB0011124672F77277B
:10236000EF01C61BD70BBE01629FE001639FD00D3A
:10237000729FD00D11247F01E91AF108E09EB0018F
:10238000E19E700DF09E700D1124672F7727E61BDC
:10239000F70BE29F8001E39F100DF29F100D1124B7
:1023A000E12F722F4230510599F048F44115510543
:1023B00069F04130510581F0EB2F8D2F07C044307B
:1023C000510569F080F046305105B1F76E2F8FCF7F
:1023D000E22F7B2F812FFACFE22F7D2FF7CFEB2F2C
:1023E000822F712FF3CF7B2F822FED2FEFCF41E084
:1023F0000E946411089508950E94F7110895CF93E3
:10240000DF93762FE901682F842F0E94FC117983D6
:1024100068838A83DF91CF9108954B3F08F04AEF9C
:102420000E94FF1108958091D502982F9E7F61F43C
:10243000817082608093D5028091D8028B3F18F022
:102440008AEF8093D80208958C32B0F381708A624B
:10245000F1CF88E090E00E9468230895CF92DF9248
:10246000EF92FF926B017C010E941312B701A6014B
:1024700088E090E00E948623FF90EF90DF90CF905D
:102480000895E5EDF2E083E1808311828FEF82838E
:102490008AEF8383148260817181828193810E949B
:1024A0002E1208958091D50280FF02C0869508956E
:1024B00080E008959091D902933018F49F5F909333
:1024C000D902882351F06091D5027091D602809193
:1024D000D7029091D8020E942E12089581E00E94A6
:1024E0005A1208959091D902992319F0915090931E
:1024F000D902882351F06091D5027091D602809163
:10250000D7029091D8020E942E12089581E00E9475
:102510007212089570E00E940217089560910401FC
:102520008091D50280FF0BC08091030123E0829F40
:10253000C001112486529D4F0E948A1208958091F5
:1025400005019091060123E0829FF0011124E652DB
:10255000FD4F891748F71182108212828F5F3396E0
:10256000F8CF9091D50290FF0EC090910501209177
:10257000060133E0939FF0011124E652FD4F9217BC
:1025800018F00E948E1208958183608342839F5FBA
:102590003396F5CFA3E0B0E0E0EDF2E10C940A232E
:1025A0009091D50290FF0AC09E012F5F3F4F0E947D
:1025B0000D124B8169818A810E94B1122396E2E05B
:1025C0000C942623CF93DF93EC01EC81F0E0E350F1
:1025D000FE4F4491E5EDF2E0628181810E94CA12D2
:1025E0008C818F5F8C83DF91CF910895CF93DF93A0
:1025F000EC01E5EDF2E0438162818C810E94CA1218
:102600008C818F5F8C83DF91CF910895A3E0B0E040
:10261000ECE0F3E10C940623082FF62E142FE22EA3
:102620008091D50280FF28C0E82FE695F0E0E657BC
:10263000FE4F908190937C028E7F823009F59E013F
:102640002F5F3F4F802F0E940D124B8169818A813D
:102650000E94B1120093D602F092D7021093D802D2
:10266000EE2051F06091D5027091D6028091D70290
:102670009091D8020E942E122396E6E00C94222319
:10268000923019F41091D802E5CF963019F40091E8
:10269000D602E0CF9930F1F6FACFE5EDF2E0918184
:1026A000282F438162818AE0890F0E9406130895D2
:1026B00081E00E944D130895E5EDF2E09181282F0D
:1026C0004381628186EF890F0E940613089581E09D
:1026D0000E945C130895E5EDF2E062812AE0620F4A
:1026E00008F46FEF282F438181810E94061308951B
:1026F00081E00E946B130895E5EDF2E062812AE02B
:10270000621B08F460E0282F438181810E94061338
:10271000089581E00E947C130895E5EDF2E0438185
:1027200020E1420F08F44FEF282F628181810E943F
:102730000613089581E00E948D130895E5EDF2E0FF
:10274000438120E1421B08F440E0282F628181810F
:102750000E940613089581E00E949E13089520E0D0
:102760000E9406130895EF92FF921F93CF93DF9379
:10277000EC0110E0EE24EA94F12C609107011617A9
:1027800070F00E948E129A818C8190FF27C08F5F1B
:102790008C83DF91CF911F91FF90EF90089520914E
:1027A0000501422F410F5527551FCA019A01220FDB
:1027B000331F280F391F26523D4F70E0C7010E947A
:1027C0008D22962F8C814091D8026091D702199F5B
:1027D000800D11240E940D121F5FCFCF8150D8CFE2
:1027E000B0E0A0E0E6EFF3E10C940223FC0182816B
:1027F0000FEF80FF01E010E04FE0A42E8091070171
:10280000181798F00E948E1280917402013009F01E
:102810004FC0811102C080910701815080937402E2
:10282000CDB7DEB7EAE00C941E23C0910501C12E9E
:10283000D12CCC0DDD2DD11DCE01880F991FC80FD5
:10284000D91FC652DD4F198218821A8234E0E32E56
:10285000F12CB12C809174028B0D80311CF16A2D0A
:102860000E946B22892F082E000C990BC816D906DE
:1028700091F48091D8028E9DA0018F9D500D11245E
:1028800055954795559547959E016091D702809142
:10289000D6020E940D12B00EF1E0EF1AF108D1F647
:1028A0001F5FACCF87FFDFCF90910701890FDBCF90
:1028B00090E001966091070170E00E948D22AECFFA
:1028C000B0E0A0E0E6E6F4E10C940023EC014C81DA
:1028D000042F10E09801D8010E94D1229B01AC0185
:1028E0000E94E7224B015C01E0E2F0E0E01BF10B0B
:1028F000A5E5B0E0AC019B010E94E7226B017C01E1
:102900009F01DF010E94C9229B01AC010E94F222BB
:102910009B01AC01280D391D4A1D5B1DC701B60185
:102920000E94A122F22E822F90E039E23F1520F181
:1029300043E0249F9001112435952795122F10957F
:1029400000E085E5E82EEF1880910701081718F1DF
:102950000E948E129C8181E0992319F0903219F423
:102960008FEF8093020180910201890F8C83CDB794
:10297000DEB7ECE00C941C2325E530E0B901681BC0
:10298000790B9B01220F331F260F371F37FFD4CF40
:102990002F5F3F4FD1CF8E2D01FD8F2D209105014F
:1029A000622F600F7727771F9B01220F331F260F9F
:1029B000371F26523D4F412F6091D7020E940D12C2
:1029C0000F5FC2CFE5EDF2E080818E7F8083608172
:1029D0007181828193810E942E1210927D022FEFCD
:1029E00080E792E0215080409040E1F700C0000075
:1029F0000E948E1208956091D502669570E041E0C4
:102A000050E088E091E00E943D23892B19F481E099
:102A100080937D020E94411B909376028093750201
:102A200008959091D50290FF2BC09170811129C01B
:102A300092609093D502662351F06091D502709117
:102A4000D6028091D7029091D8020E942E126091F6
:102A5000D502669570E041E050E088E091E00E9488
:102A60003D23892BA9F010927D0281E080937802AA
:102A70004091D8026091D7028091D6020E94AF1394
:102A80000895863110F09A62D4CF880F982BD1CF59
:102A90000E94FB14EACF682F9091D502969581E0B1
:102AA000890F863108F081E00E941115089581E0B8
:102AB0000E944B150895682F9091D50296958FEF3F
:102AC000890F09F485E10E941115089581E00E94A3
:102AD0005B15089561E00E9411150895E5EDF2E09F
:102AE00080818160808386950E946A150895809117
:102AF000D50280FF03C00E94E21408950E946E1563
:102B0000089560E00E941115089580917B02811163
:102B10002EC00E94580C811104C00E94010D0E9419
:102B200041120E9429126093D5027093D6028093BD
:102B3000D7029093D8026E7F61F40E9441120E94E6
:102B400029126093D5027093D6028093D702909396
:102B5000D8020E94131210927D028091D50280FF4C
:102B600003C086950E94811581E080937B020895C1
:102B70000F931F93CF93DF9380917D028823B9F148
:102B800080917C02E091D502E695E81BE093770204
:102B9000823091F5F0E0E750FE4FE491CE2FD0E087
:102BA00002EE12E180917802882361F0109278029F
:102BB0000E94411B909376028093750210927A02D4
:102BC000109279020E94411BE0917502F091760209
:102BD0008E1B9F0B8F3F9F4750F4EC0FFD1FF09310
:102BE0007602E093750285E792E0F8010995DF919E
:102BF000CF911F910F910895863049F4F0E0EA508B
:102C0000FE4FE491CE2FD0E006EF12E1CBCF89301A
:102C100051F4E695F0E0ED50FE4FE491CE2FD0E078
:102C200003EB13E1BFCF8F3051F4E695F0E0E051B4
:102C3000FE4FE491CE2FD0E000EF13E1B3CFC8E216
:102C4000D0E000E614E1853109F4ACCFC0EDD7E067
:102C50000BEF11E1A7CFFA01811101C0FB0109952A
:102C60000895CF93DF93C82FD62F0E9452128C174E
:102C700048F00E9452128D1728F40E945715DF91D8
:102C8000CF9108958C2F0E946A15F9CF1F93CF938F
:102C9000DF93EC01FB01128111117AC00E946A0BD3
:102CA0008272CD3CFCE5DF0709F498C008F041C012
:102CB000C73CECE5DE0709F47DC0D8F4C43C9CE5D4
:102CC000D90709F46DC030F4C33CDC4509F465C094
:102CD00011E05EC0C53C9CE5D90709F466C047E633
:102CE00053E168E573E1C63CDC4591F70E942B1681
:102CF0004FC0CA3CFCE5DF0709F466C068F4C83C75
:102D0000ECE5DE0709F45BC048E753E169E873E1ED
:102D1000C93CDC4559F3DCCFCB3C9CE5D90709F431
:102D200058C046E852E16EE672E1CC3CDC45F1F277
:102D3000CFCFC23DFCE5DF0709F461C098F4CF3C7A
:102D40009CE5D90709F453C008F44DC0C03DFCE52B
:102D5000DF0709F451C0C13DDC4509F0B9CF6EE091
:102D600089E047C0C73D9CE5D90770F4C53DECE557
:102D7000DE0770F4C33DFCE5DF0751F0C43DDC45E0
:102D800009F0A6CF85E130C0CE35DD4509F0A0CFF2
:102D9000812FDF91CF911F9108950E947715F8CF71
:102DA00046E655E167E575E1A1CF47E555E166E601
:102DB00075E19CCF48E553E167E673E197CF49E8B9
:102DC00053E168E773E192CF4BEA53E16AE973E1BB
:102DD0008DCF4AE953E16BEA73E188CF4EE652E1C9
:102DE00066E872E183CF81E00E946A15D1CF65E089
:102DF00082E00E943116CCCF68E086E0FACF64E131
:102E00008FE0F7CF809A41B34E7F51B35160EFB757
:102E1000F8949B01220F331F260F371F280F391FED
:102E20002817390741F4EFBF8FE594E00197F1F7D8
:102E300000C000000895DC016D91CD0178E051BB28
:102E4000000000C067FF41BB660F000000C000C06B
:102E500000C041BB00C07A9591F7E2CFCF93DF93DA
:102E6000EC01FB018281882309F464C1C430FDE5D3
:102E7000DF07E0F5CB3F9CE5D90730F49E012250F7
:102E80003C4524313105D8F50E946D0C9093B00279
:102E90008093AF02C231ECE5DE0709F41FC108F0F0
:102EA0006EC0C9308CE5D80709F4F2C008F03FC005
:102EB000C530ECE5DE0709F4DBC058F5C3308CE51E
:102EC000D80709F4CDC008F0CFC08091AF0281606F
:102ED000C230DC4509F4AEC08091AF029091B002DF
:102EE0000E947B0C0E94EE0680E009C0C63AEDE528
:102EF000DE0751F238F4C2369DE5D90729F2DF9199
:102F0000CF9108959E012E5A3D4523303105B8F7E3
:102F1000BBCF8091AF028062C730FCE5DF0709F4C8
:102F200089C008F4B1C08091AF02806483C0CD3005
:102F30009CE5D90709F4BAC070F48091AF028E7F86
:102F4000CB30FCE5DF0709F475C008F4A7C0809119
:102F5000AF028D7F6FC0CF309CE5D90709F4B6C0B2
:102F600008F4A8C0C031FCE5DF0709F4B3C0C131E3
:102F7000DC4509F0B1CF8091AF028F7B5BC0C115FA
:102F80009DE5D90709F4B4C098F5CB3FFCE5DF0710
:102F900009F472C0B8F4C4319CE5D90709F4B6C08D
:102FA00008F4A2C0C531DC4509F096CF8091AF028C
:102FB00082FB992790F921E0922790FB82F990FB00
:102FC00083F938C0CD3F8CE5D80709F477C008F401
:102FD00057C0CE3FECE5DE0709F474C08091B00223
:102FE0008360CF3FDC4509F077CF8093B00274CF88
:102FF000C2368DE5D80709F496C068F4C230EDE515
:10300000DE0709F48CC008F477C0C330DD4509F051
:1030100063CF80E085C0CE3A9DE5D907E9F068F43A
:103020009091AF02892F8E7F90FF8160C63ADD4577
:1030300009F052CF8093AF024FCFCF3A8DE5D8073A
:1030400089F1C03BDD4509F047CF9091B002892F4F
:10305000877F93FF8860C9CF8091B0028860C5CF19
:103060008091AF028260E6CF8091AF028460E2CFB0
:103070008091AF028860DECF8091B0028160B5CFD1
:103080008091B0028260B1CF8091AF028061D2CFD7
:103090000E94EE068091AF028068CCCF8091AF0293
:1030A0008C60C8CF8091B002877F9FCF8091AF02A4
:1030B0008B7FC0CF8091AF02877FBCCF8091B00261
:1030C0008E7F93CF8091B0028D7F8FCF8091AF02A2
:1030D0008F7EB0CF8091AF028F7DACCF0E94EE0685
:1030E0008091AF028F77A6CF8091AF02837FA2CF6E
:1030F0008091B0028C7F79CF8091B002982F90950B
:1031000091708E7F892B90FB81F96FCF0E94EE0624
:103110009091AF02892F97FB87F980588BCF81E080
:103120000E94040DD9CE9091AF02892F8F7E94FF1B
:10313000806180CF81E0E3CECF93DF93EB018631D6
:103140009C4511F50E946A0B9A81992399F08A7A1D
:1031500091E009F490E090937E02811109C089E228
:103160000E94420B0E94AB0B80E0DF91CF9108954B
:1031700085E3F6CF80917E02811104C089E20E942E
:103180004A0BF0CF85E3FBCF81E0EFCF0F931F9386
:10319000CF93DF93C42FD22FFC0182818823C9F003
:1031A000409381020E94411B9093800280937F0292
:1031B00080E28C0F883040F4C77081E001C0880F36
:1031C000CA95EAF70E949F04DF91CF911F910F915A
:1031D000089510918102141332C080917F02909162
:1031E00080020E94591B883C910548F5C0E2CD0F32
:1031F0001D17B9F080E2810F883040F4177081E02C
:1032000001C0880F1A95EAF70E94A604C83048F456
:1032100081E09D2F977001C0880F9A95EAF70E9470
:103220009F04802F0E949604C83070F6D77081E00A
:1032300001C0880FDA95EAF70E94A604C5CF80E2A4
:103240008C0F883008F6C77081E001C0880FCA95DE
:10325000EAF7F2CF0F939C01CB01243F4CE53407F2
:1032600059F1A8F4293DFCE53F0701F12A3D4CE561
:103270003407D1F1283D3C4591F406E221EE41EEC0
:1032800068ED7CE50E94C61880E00F910895263F06
:10329000FCE53F07E9F0B0F0273F3C45F9F0FC01C1
:1032A0008281882339F110928102EFCF07E225EE67
:1032B00045EE69ED7CE5E6CF06E221EE40EE64EFF7
:1032C0007CE5E0CF07E225EE44EE65EF7CE5DACF62
:1032D00006E221EE42EE66EF7CE5D4CF07E225EE72
:1032E00046EE67EF7CE5CECF08E221E045EE6AEDE1
:1032F0007CE5C8CF81E0C9CF9093A1018093A00164
:10330000089590938702809386020895E091860243
:10331000F0918702309729F00190F081E02D099516
:10332000089580E00895E0918602F0918702309739
:1033300099F020911501222359F02091AF0227FF27
:1033400007C0DC012C9111962C93119726E02C9349
:103350000280F381E02D0995089520918402309137
:1033600085022817390771F09093850280938402B3
:10337000E0918602F0918702309721F00680F78174
:10338000E02D09950895209182023091830228173B
:10339000390771F09093830280938202E091860254
:1033A000F0918702309721F00084F185E02D099596
:1033B0000895FC01329680911501882321F08091B7
:1033C000AF029EE187FF96E080E0915008F40895F7
:1033D00021912223D1F38F5FF8CF662301F1209151
:1033E00015012223F1F02091AF0227FF1AC0462FCA
:1033F0004695469546954E3190F4677021E030E051
:1034000002C0220F331F6A95E2F7840F911DFC0161
:10341000828190E02823392381E0232B69F480E026
:103420000895FC01329608962191261721F0E8179D
:10343000F907D1F7F4CF81E008959C01FC013296A1
:103440009FEF80E04191461751F09F3F19F44111E1
:1034500001C0982F8F5F8630A9F79F3F09F4089528
:10346000290F311D97FD3A95F90162830895FC01FA
:10347000329608962191261303C0DF0111971C9202
:10348000E817F907B9F70895E62FE695E695E6956A
:10349000EE3168F4E80FF92FF11D677021E030E09C
:1034A00001C0220F6A95EAF78281822B82830895F8
:1034B000E62FE695E695E695EE3170F4E80FF92FE4
:1034C000F11D677021E030E001C0220F6A95EAF734
:1034D000209582812823228308952091150122239B
:1034E00039F02091AF0227FF03C00E94441A0895CB
:1034F0000E941D1A089520911501222339F0209170
:10350000AF0227FF03C00E94581A08950E94371A7D
:103510000895FC01329680911501882351F0809125
:10352000AF0287FF06C08EE1DF011D928A95E9F7A1
:10353000089586E0F9CF08950E949B1A089581119D
:1035400006C081E0809388020E949C1A089582E060
:10355000F9CF83E0809388020E949C1A08950E940C
:103560009F1A089581E0809388020E949C1A089512
:103570000E94B21A0895089508950E94BC1A0895F1
:10358000089508950E94BB1A0895CF930E94C01A0F
:103590000E94CE100E94C11AC0E08C2F0E9403101E
:1035A000892B31F4CF5FC930C1F780E0CF91089506
:1035B00081E0FCCF85B7806885BF85B7806885BF0F
:1035C00008951F921FB61F9211248F939F93AF935C
:1035D000BF9380918902811113C08091070390915C
:1035E0000803A0910903B0910A034196A11DB11DE2
:1035F0008093070390930803A0930903B0930A03F1
:10360000BF91AF919F918F911F901FBE1F901895F2
:1036100080910F03843031F10E9496031092890249
:1036200088E190E020E40FB6F894A89580936000BC
:103630000FBE2093600083B7817F846083BF83B710
:10364000816083BF7894889583B78E7F83BF0FB6E0
:10365000F894A89580916000886180936000109232
:1036600060000FBE08950E94EE060E949B0308951D
:1036700082E084BD93E095BD9AEF97BD80936E0084
:1036800008952FB7F8948091070390910803A091B3
:103690000903B0910A032FBF08952FB7F8946091E2
:1036A0000703709108038091090390910A032FBFCB
:1036B00008959C014FB7F8948091070390910803F7
:1036C000A0910903B0910A034FBF821B930B089589
:1036D00078941F921FB61F9211248F939F93AF93DC
:1036E000BF938091070390910803A0910903B091C3
:1036F0000A030196A11DB11D80930703909308034F
:10370000A0930903B0930A03BF91AF919F918F914A
:103710001F901FBE1F90189581E08093E00080E20B
:103720008093D8001092C9008FE19EE40197F1F7D1
:1037300000C0000087E090EBDC01809318039093B9
:103740001903A0931A03B0931B0388E19CE00FB602
:10375000F894A895809360000FBE90936000FFCF0F
:1037600088E19CE00FB6F894A895809360000FBEA6
:1037700090936000FFCF8091AD0208950895CF939C
:10378000DF93EC01809115018823B1F18091AF02A4
:1037900087FF32C060E282E08093E9008FEF909172
:1037A000E800815095FD06C095ED9A95F1F700006F
:1037B0008111F5CF8091E80085FF1BC08091150134
:1037C00070E050E040E0811104C050E040E068E06B
:1037D00070E0CE010E94E41D8091E8008E77809316
:1037E000E80080E2FE01ADE8B2E001900D928A951A
:1037F000E1F7DF91CF91089568E081E0CDCF80932C
:103800008A0270938C0260938B0280910F03843044
:1038100001F582E08093E9008FEF9091E8008150FC
:1038200095FD06C095ED9A95F1F700008111F5CF51
:103830008091E80085FF0DC050E040E063E070E05B
:103840008AE892E00E94E41D8091E8008E778093E0
:10385000E8000895BC0184E00E94FF1B0895BC01AC
:1038600083E00E94FF1B0895089580910E0381114B
:1038700009C00E94741F0E94D11F8091E2008460E1
:103880008093E200089510920E0308950E94B21AE8
:10389000089560910B0381E0611101C080E00E94F6
:1038A000A91A089590910F0381E0943009F080E007
:1038B00060910B030E94AF1A089542E061EC81E031
:1038C0000E94F01E42E261EC82E00E94F01E9091A4
:1038D0000F0381E0943009F080E060910B030E94B7
:1038E0009F1A089580911103833009F461C030F468
:1038F0008130D1F1823009F49EC008958A3009F4F4
:103900008AC08B3009F46FC0893009F050C08091B3
:103910001003813209F04BC080911403909115037C
:10392000029708F044C08091E800877F8093E80008
:103930008091E80082FF37C09091F3008091F200FF
:10394000029731F48091F100813011F0863021F43A
:103950008091F1008093AD028091E8008B77809395
:10396000E8000E94241F23C080911003813AF9F4DB
:103970008091E800877F8093E80080911403909104
:103980001503892B61F460E28DE892E070E00E94FB
:10399000331E8091E8008B778093E800089560E003
:1039A00090E080E0F3CF80910F038111C1CF0895A3
:1039B00080911003813AD9F78091140390911503F7
:1039C000892BA9F78091E800877F8093E800809198
:1039D000E80080FFFCCF809115018093F100809179
:1039E000E8008E77BCCF80911003813201F780917F
:1039F000140390911503892BD1F68091E800877FFD
:103A00008093E8000E94241F809112038093150187
:103A10000E94EE06089580911003813241F6809154
:103A2000E800877F8093E8000E94241F80911303A1
:103A30008093AE02089580911003813A09F0B7CFC8
:103A40008091E800877F8093E8008091E80080FF04
:103A5000FCCF8091AE02C1CF84B7877F84BF0FB601
:103A6000F894A8958091600088618093600010921E
:103A700060000FBE80E890E00FB6F894809361007C
:103A8000909361000FBE0E94B81A08950E94741F9F
:103A90000E94D11FE2EEF0E0808184608083789400
:103AA0000E945022089589E091E00E9481190895B2
:103AB00080910F03853031F480910F03853019F028
:103AC0000E94331B08950E94081B80910D038823D8
:103AD00099F30E94C51A882379F30E94CE1D0E9493
:103AE000EE06EACF08950E94761D0895292F332708
:103AF0002330310519F168F42130310509F444C04F
:103B00002230310509F445C090E080E030E020E04B
:103B100025C02132310549F122323105A9F780E46F
:103B200090E027EE34E061157105C1F08DE690E07C
:103B30002AE734E06130710589F0E6CF99278130BA
:103B4000910581F0009729F00297F1F6EDEFF3E08F
:103B500002C0E9E2F4E0849190E09F01FA01318330
:103B600020830895EBE1F4E0F6CF89E090E02FE3C5
:103B700034E06115710591F389E090E028E534E0C7
:103B80006130710559F3C0CF82E190E028E634E05E
:103B9000E5CF8BE390E02DE234E0E0CF80E189BD1A
:103BA00082E189BD09B400FEFDCF8091D8008F7DF0
:103BB0008093D8008091E00082608093E000809143
:103BC000E00081FDFCCF0895AF92BF92CF92DF92CB
:103BD000FF920F931F93CF93DF936C01EB018A0148
:103BE0000E94431FF82E811123C00115110539F0E1
:103BF000F80180819181C81BD90BC80ED91EB12C48
:103C0000A12C2097A9F08091E80085FD22C0809129
:103C1000E8008E778093E80001151105A1F0F80106
:103C200080819181A80EB91EB182A08285E0F82E14
:103C30008F2DDF91CF911F910F91FF90DF90CF904B
:103C4000BF90AF9008950E94431F8823D1F2F82EB1
:103C5000EFCFF60181916F018093F1002197FFEF83
:103C6000AF1ABF0ACECFFC018091160390911703C3
:103C700086179707A0F06115710529F49091E80067
:103C80009E779093E80090E06115710551F49111D1
:103C900008C08091E80082FF34C080E00895BC0134
:103CA000F2CF80910F038823C1F18530C1F180915B
:103CB000E80083FD30C08091E80082FDEACF80916A
:103CC000E80080FFE1CF8091F3002091F200382FCF
:103CD0006115710519F02830310558F091E0283050
:103CE000310509F090E02091E8002E772093E8005C
:103CF000CBCF81918093F100615071092F5F3F4FCD
:103D0000E7CF80910F03882341F0853041F0809107
:103D1000E80083FFBECF81E0089582E0089583E04C
:103D20000895FC0180911603909117038617970759
:103D3000A0F06115710529F48091E8008E778093D9
:103D4000E80090E06115710551F4911108C080916F
:103D5000E80082FF35C080E00895BC01F2CF809179
:103D60000F038823C9F18530C9F18091E80083FDF4
:103D700031C08091E80082FDEACF8091E80080FFA9
:103D8000E1CF8091F3002091F200382F6115710589
:103D900019F02830310558F091E02830310509F04C
:103DA00090E08091E8008E778093E800CBCF8491FB
:103DB0008093F1003196615071092F5F3F4FE6CF3C
:103DC00080910F03882341F0853041F08091E80015
:103DD00083FFBDCF81E0089582E0089583E00895D8
:103DE000982F973028F08F708093E90081E0089534
:103DF0009093E900242F762F50E0981731F07091BE
:103E0000EC002091ED005091F00021FD02C09F5F79
:103E1000E8CF3091EB003E7F3093EB003091ED0026
:103E20003D7F3093ED003091EB0031603093EB003B
:103E30007093EC002093ED005093F0002091EE0081
:103E400027FDE5CF80E008958091100387FF13C020
:103E50008091E80082FF06C08091E8008B77809314
:103E6000E80004C080910F038111F2CF0895809182
:103E70000F038823D9F38091E80080FFF8CF809169
:103E8000E8008E77ECCF2091E4003091E50095E6D4
:103E9000A9012091EC00822F817020FF06C0809143
:103EA000E80080FF06C080E008952091E80022FD30
:103EB0001AC080910F03882389F0853089F08091A2
:103EC000EB0085FD0FC02091E4003091E500421722
:103ED0005307F9F29150E1F684E0089582E00895E5
:103EE00083E0089581E008950E94E31F0E94EB1F84
:103EF000E0EEF0E0808181608083E8EDF0E0808199
:103F00008F77808319BCA7EDB0E08C918E7F8C9366
:103F100080818F7E808310920E0308950F931F93EC
:103F2000CF93DF930E94E31F0E94EB1FC8EDD0E008
:103F300088818F77888388818068888388818F7D56
:103F4000888319BC10920F0310920B0310920D037B
:103F500010920C0300EE10E0F80180818B7F8083CB
:103F600088818160888342E060E080E00E94F01EEA
:103F7000E1EEF0E080818E7F8083E2EEF0E08081F0
:103F800081608083808188608083F80180818E7F5A
:103F90008083888180618883DF91CF911F910F9109
:103FA0000895E8EDF0E080818F7E8083E7EDF0E01A
:103FB00080818160808384E082BF81E080930E03F2
:103FC0000E948E1F0895E8EDF0E080818E7F80834F
:103FD0001092E20008951092DA001092E100089524
:103FE0001F920F920FB60F9211242F933F934F936E
:103FF0005F936F937F938F939F93AF93BF93EF9351
:10400000FF938091E10082FF0BC08091E20082FF6C
:1040100007C08091E1008B7F8093E1000E944F22D6
:104020008091DA0080FF19C08091D80080FF15C010
:104030008091DA008E7F8093DA008091D90080FF32
:1040400096C080E189BD82E189BD09B400FEFDCF43
:1040500081E080930F030E94351C8091E10080FF76
:1040600019C08091E20080FF15C08091E2008E7F30
:104070008093E2008091E20080618093E200809171
:10408000D80080628093D80019BC85E080930F032C
:104090000E94491C8091E10084FF2BC08091E200C6
:1040A00084FF27C080E189BD82E189BD89B5982F51
:1040B000917080FFFBCF8091D8008F7D8093D800D6
:1040C0008091E1008F7E8093E1008091E2008F7EFD
:1040D0008093E2008091E20081608093E200809111
:1040E0000B03882309F449C084E080930F030E94E6
:1040F000521C8091E10083FF29C08091E20083FF80
:1041000025C08091E100877F8093E10082E0809369
:104110000F0310920B038091E1008E7F8093E100EA
:104120008091E2008E7F8093E2008091E2008061C6
:104130008093E20042E060E080E00E94F01E809107
:10414000F00088608093F0000E94461CFF91EF9180
:10415000BF91AF919F918F917F916F915F914F919F
:104160003F912F910F900FBE0F901F90189519BC83
:1041700010920F030E94431C70CF8091E30087FDD3
:1041800093E090930F03B3CF1F920F920FB60F924D
:1041900011242F933F934F935F936F937F938F934C
:1041A0009F93AF93BF93CF93DF93EF93FF93D09100
:1041B000E900DF708091EC00C82FC17080FDC0E87D
:1041C0001092E9008091F000877F8093F00078944E
:1041D0000E9408211092E9008091F000886080938D
:1041E000F000CD2BCF70C093E900FF91EF91DF91EC
:1041F000CF91BF91AF919F918F917F916F915F917F
:104200004F913F912F910F900FBE0F901F901895D7
:10421000AAE2B0E0EEE0F1E20C94092380E193E041
:104220002091F100FC012193CF01F3E088319F0739
:10423000B9F70E94721C8091E80083FF1EC1809133
:104240001003909111039A3008F017C1E92FF0E0A4
:10425000EA54FC4D0C94C322803899F0823809F05E
:104260000CC1809114038F70873008F006C18093D1
:10427000E9008091EB0085FB882780F91092E90026
:1042800006C080910C0390910D0391118260909172
:10429000E800977F9093E8008093F1001092F1007E
:1042A0008091E8008E77E5C0882309F4D3C082307E
:1042B00009F0E3C0809112038111D6C080911403EC
:1042C0008F702FEF280F263008F0D7C08093E900B9
:1042D0002091EB0020FFC8C0933031F48091EB00B7
:1042E00080628093EB00C0C09091EB00906190934E
:1042F000EB0021E030E001C0220F8A95EAF720931D
:10430000EA001092EA008091EB008860EACF811108
:10431000B4C0109112031F778091E3008078812B45
:104320008093E3008091E800877F8093E8000E94FB
:10433000241F8091E80080FFFCCF8091E30080681B
:104340008093E30082E0111183E080930F0395C016
:104350008058823008F091C080911203909113032D
:104360008C3D23E09207A1F583E08A838AE289836A
:104370004FB7F894DE01139620E03EE051E2E32FC0
:10438000F0E050935700E49120FF03C0E295EF70F6
:104390003F5FEF708E2F90E0EA30C0F0C7968D93AC
:1043A0009D932F5F243159F74FBF8091E800877F9D
:1043B0008093E8006AE270E0CE0101960E94331E0D
:1043C0008091E8008B778093E80057C0C096E7CFD4
:1043D0006091140370911503AE014F5F5F4F0E940F
:1043E000731DBC01892B09F448C09091E800977FA8
:1043F0009093E80089819A810E94911EE1CF8038D4
:10440000E1F58091E800877F8093E80080910B03BD
:104410008093F10045CF811130C09091120392300A
:1044200060F58091E800877F8093E80090930B030C
:104430000E94241F80910B03882311F084E005C0A3
:104440008091E30087FDFACF81E080930F030E9403
:104450005D1C13C080911203813079F481E09330A8
:1044600009F080E080930D031092E9008091E8004C
:10447000877F8093E8000E94241F8091E80083FFDB
:104480000AC08091E800877F8093E8008091EB006C
:1044900080628093EB00AA96E3E00C9425230895B4
:1044A000CF9380910F038823A1F0C091E900CF70D2
:1044B0009091EC00892F817090FD80E8C82B1092BC
:1044C000E9008091E80083FD0E940821CF70C0932D
:1044D000E900CF91089587FB082E062687FD819578
:1044E00067FD61950E9431230EF4919507FC81953B
:1044F0000895AA1BBB1B51E107C0AA1FBB1FA6172B
:10450000B70710F0A61BB70B881F991F5A95A9F77C
:1045100080959095BC01CD01089597FB072E16F468
:10452000009407D077FD09D00E94792207FC05D0BE
:104530003EF4909581959F4F0895709561957F4FBA
:104540000895A1E21A2EAA1BBB1BFD010DC0AA1FD4
:10455000BB1FEE1FFF1FA217B307E407F50720F0EC
:10456000A21BB30BE40BF50B661F771F881F991F67
:104570001A9469F760957095809590959B01AC01B0
:10458000BD01CF010895EE0FFF1F0590F491E02DBE
:1045900009940E94D122332312F48A1B9B0B0C94A2
:1045A000E222A29FB001B39FC001A39F700D811DA5
:1045B0001124911DB29F700D811D1124911D08952C
:1045C0000E94D122B7FF0895821B930B08950E9489
:1045D000D122A59F900DB49F900DA49F800D911D99
:1045E00011240895B7FF0C94E7220E94E722821B52
:1045F000930B08952F923F924F925F926F927F920A
:104600008F929F92AF92BF92CF92DF92EF92FF92E2
:104610000F931F93CF93DF93CDB7DEB7CA1BDB0B8E
:104620000FB6F894DEBF0FBECDBF09942A88398833
:1046300048885F846E847D848C849B84AA84B9843A
:10464000C884DF80EE80FD800C811B81AA81B98146
:10465000CE0FD11D0FB6F894DEBF0FBECDBFED015A
:104660000895991B79E004C0991F961708F0961BCE
:10467000881F7A95C9F780950895FC0141505040F4
:1046800030F001900616D1F73197CF0108958827B1
:1046900099270895FB01DC0104C08D9101908019D8
:1046A00021F441505040C8F7881B990B0895FB0135
:1046B000DC0102C001900D9241505040D8F708959E
:1046C000F999FECF92BD81BDF89A992780B50895DA
:1046D000A6E1B0E044E050E00C949A23A8E1B0E0F9
:1046E00042E050E00C949A23262FF999FECF92BD18
:1046F00081BDF89A019700B4021639F01FBA20BDA7
:104700000FB6F894FA9AF99A0FBE08950396272FD8
:104710000E9475230E947423252F0E947523242F45
:104720000C9475230196272F0E9475230C947423F3
:10473000DC01CB01FC01F999FECF06C0F2BDE1BD61
:10474000F89A319600B40D9241505040B8F7089550
:10475000F894FFCFE804E80419051905A6054805F3
:1047600048054805C2053306420642062C2154215D
:104770003D2254213D228721A8213D22FF210B22E9
:10478000320201000F000F0F01BB1BBF1B341C2F97
:104790001C2A1CBE1B01E200E900EA00B500B600BD
:1047A000B700CD008301CC008A019201940121025F
:1047B000230224022502260227022A02B300B400A3
:1047C0006F007000818283E200E900EA00B500B664
:1047D00000B700CD008301CC008A01920194012131
:1047E00002230224022502260227022A02B300B471
:1047F000006F00700081828332F4F5F6F79496978B
:1048000090339192F1343593953100010202020206
:104810000606060909090909090F0F0F0F0F0F15E1
:020000020000FC
:047000000C948D3E21
:047028000C94B73DD0
:10702F0012010002FF010020EB03F42F0000010208
:10703F00030109021200010100803209040000005F
:10704F00000000000C03410054004D0045004C00AF
:10705F001603410054006D00330032005500340018
:10706F004400460055000C0331002E0030002E0066
:10707F0030000403090416010C0100000C0000018C
:02708F006C7F14
:1070920012BD01BDF89A00B5089501E00895F9996D
:1070A200FECF12BD01BD20BDFA9AF99AF6CFF99929
:1070B200FECF0C944938F80104910895F8013491F7
:1070C20031962491890108950091610000930C0189
:1070D20000E80093610001E00093610005BF02E057
:1070E20005BF0C9486380091D70001600093D70049
:1070F200A89507EF04BF0091600000610093600053
:1071020000E00093600001E008950E94AA3D0E9401
:10711200B53DFDCF0CD00F7708D0006806D00061D6
:1071220004D0016028D0789408950093D80000918B
:10713200D8000895FCDF00621ED04CD009B500FFD4
:10714200FDCFF5DF0F7D17D00091E0000E7F009399
:10715200E0000091E000077F0093E0000091E20070
:1071620001600093E2000091E20008600093E200F7
:1071720078940C94743B0093D800089500910D010B
:10718200002359F40091D90000FF07C0D0DF006846
:10719200F2DF01E000930D01CDDFE0E2F2E00081D9
:1071A200018100FF0DC0008111811E7F11830083C8
:1071B20001E00093EA0000E00093EA0000931E025F
:1071C20000E00093E9000091E80003FF02C00E9482
:1071D200F23B0895A89539D000E40093600000E0E6
:1071E200009381000093800010E0009385000093DB
:1071F200840001E006BB00918100036000938100DE
:107202000091600007FFFCCF00E80093600010933C
:107212008100A89507EF04BF18D010936000209159
:1072220084003091850010938100109380001093A8
:1072320085001093840001E006BB2D3D354010F01F
:1072420002E101C002E009BD089500916000006101
:107252000093600008950E94AD3E239741D100E063
:1072620000930901B5D104811581012B51F437D165
:1072720000910701002309F4B9C000E0009307015F
:10728200B5C058D102FFFDCF37D1068335D1009367
:107292000F0132D1009310012FD1009311012CD193
:1072A2000093120129D10093130102852091130149
:1072B20030911201409111015091100116811A95DD
:1072C20041F01250A9F01A9599F11A9509F473C078
:1072D2008BC010910F01113011F411E001C010E0C8
:1072E200138799D00C3F11F414D17FC077D17DC0A0
:1072F20092D010910F01112329F01A9549F01A9595
:10730200A9F073C010E013870C3F09F06EC0ECCFF8
:1073120056D103C04CD109F468C00D911C9144D1DF
:107322000F3FC1F305E0009309015FC011E0EBCF0D
:10733200D2D029F00250E1F10A9541F056C0FDD0B9
:107342000E94A33F0FEF00930A014FC0552319F08B
:107352005A9579F04AC04ED00DEF04BF74D0EAD0EE
:1073620003FFFDCF67D051D04AD008E00093600000
:10737200FFCF40D068D0DED003FFFDCF5BD03FD03F
:1073820044D00FEF1FE004C009811A810150104060
:1073920009831A8309811A81012BB1F700E800934E
:1073A200610000910C01009361000C940000FFCF7A
:1073B20001E003871AC08FD019F00A9539F015C081
:1073C200535098F4BAD002E000870FC0505339F0FE
:1073D2005A9541F05F52B1F35A95A1F306C002E00B
:1073E2000883F0CF01E0FCCFA8D079D02396E4E067
:1073F2000C94BA3E01E005BF00E005BF089500917C
:10740200D8000F770093D800089509B50D7F09BD04
:1074120000E009BD08955183408333832283109194
:10742200E8001B7F1093E8001091E8001F7710938B
:10743200E80008955DD053D0F8940091E000016017
:107442000093E000089579D04AC0219749D0009175
:107452000601035019F00250B9F00BC03CD021F0E4
:107462000A9559F00A9529F400910A010C3F19F482
:1074720050D02196089567D0FCCF0091010100936E
:10748200F100009100010AC01091100124D019F0FE
:107492000A9549F0EECF135018F400E00093F10082
:1074A2001ED044D0E6CF105339F01A9539F01F524E
:1074B20041F01A9541F0F4CF08E5F0CF00E006D094
:1074C200EDCF02E0FCCF04E001D0E8CF10E020E0F5
:1074D20030E00C94113F00910F010023089521C068
:1074E2000BD008D007D00093040106D00093050109
:1074F20021D00BC000D008830091F10008950091C3
:10750200EB0000620093EB0015D0077F0093E800C8
:107512000895F5DF02E00093080103E000930901FA
:10752200089559D007D000FFFDCF089503D002FF80
:10753200FDCF03C00091E8000895FCDF0B7FE6DF7A
:10754200F9DF0F77E3CF0E94AC3E42D038D006C0BD
:107552002BD00093F1002BD059F43DD0082F092BEA
:10756200A9F0E8DF02FD12C0E5DF00FFFDCF4424F1
:10757200042D4394003289F300910B0100230D91F5
:107582001C9131F311970E945838E3CFD3DF00FFEB
:10759200FDCF21D0CFDF00FFFDCFCCDF02FFFDCF3B
:1075A200CCDFE5E00C94B93E11970C945C380D9158
:1075B2001C910F5F1F4F1C930E93019708958281B8
:1075C200938100811181801B910B0196DF01089547
:1075D200E0E0F1E00895AEDF0E7F98CF0E94A93E71
:1075E200F7DF80819181A081B181AF710481158122
:1075F20000521040048315830AC000910B0100233E
:1076020031F4A301920103E911E00E943B3F47D00C
:10761200B8F1662477242C0111C06EDFF301ED5618
:10762200FE4F008301E0600E00E0701E01960091A3
:10763200F200002311F033D0B8F47FDF30D0E8F24B
:10764200F301B096E238F040C0F674DF02FFFDCFDE
:107652000091F200BDDF24813581201B304024835C
:107662003583E5CF49DFAA95AA23E1F700910B0103
:10767200013099F62091F1008C010E945038D6CF4A
:1076820004811581012B21F055DF02FFFDCF55DF6B
:10769200A2DF50DF00FFFDCFE8E00C94B63EE0E051
:1076A200F1E0028113810817190708952091EB0078
:1076B20021602093EB000093EC000091ED0002703A
:1076C200012B0093ED000091ED0002600093ED00AC
:1076D2001091EE00012F000F00E0001F0895412FCE
:1076E2000093E900089500E009D000FD05C000E024
:1076F200F7DF10E202E0DACF00E00895F1DF009157
:10770200EB0008950F770132A9F5112369F11A955B
:1077120059F01A9561F01A9569F01A95F9F01A95CF
:10772200C1F01A95D9F024C00E942C3920C00E94C1
:10773200263A1DC029D00091090123D001E01FD0B3
:1077420020D0009108011BD00E94923A0E94973AE1
:107752000EC01AD00091080114D007C002E00093B5
:10776200080100E0009309010FD00E94923A03C081
:107772000E94803A02C001E0089500E0089501D01D
:1077820000E00093F10008950091E800077F009364
:10779200E800089508950350F9F4112339F01A9579
:1077A20051F01A9581F01A9599F016C004E016D09E
:1077B20001E810E703C011D003E510E7E7E1F2E0CA
:1077C20000831183D8CF06E109D00FE510E7F6CF89
:1077D20004D005E710E7F2CFD0CF0CE000931A02F5
:1077E200089527D120D100931D02E1D0212F11232A
:1077F20029F12A95E9F02250F1F0225099F02A95C8
:1078020049F0225061F02A9581F02A95E1F02A95FB
:10781200E9F023C0003809F44FC00C94833B0038D0
:10782200E1F7C8C00023C9F71EC00023B1F72DC07D
:10783200033098F744C1033080F70BC1003868F376
:10784200033858F7C9C0013841F77BC1013051F400
:10785200FCD0BFD000FD06C0FCCF0E94833B0023BA
:1078620009F41ED008951091E3001078DCD00F7750
:10787200012B0093E300E9D0ACD000FFFDCF0091D3
:10788200E30000680093E300089591D0123040F4C1
:107892000FD010931E02DAD000911E020C94CB3B43
:1078A2000091EB0001D004C000620093EB00089548
:1078B2000091E800077FC0C0BA93AA93229700E024
:1078C2000093190274D0AFD0202F2A9519F02A956F
:1078D200E9F022C002E100931A020FE210E7E7E1A9
:1078E200F2E0008311839DD008839DD00983E0DFFD
:1078F20000911A0210E02881398102171307A8F4B7
:107902000F7181F401E00093190211C002E10093AA
:107912001A0201E410E7E3CF0E94CC3B002319F7DF
:107922008ED040C01093190202C020931A027ED05A
:10793200A7E1B2E001C08AD000911A02002309F146
:1079420048D004FD1EC045D000FD03C042D004FF54
:10795200FACF10E0012F1395003281F0ED91FC91E6
:107962001197049133D02D913C912F5F3F4F3C935F
:107972002E93FD0103810A95038361F72AD004FF48
:10798200DACF00911902013039F423D004FD04C08A
:1079920020D000FFFDCF5AD01CD004FFFDCF46D02F
:1079A20018D00B7F49D02296A991B99108951091D0
:1079B200F10008957DDF00911E0208D047D009D062
:1079C2000F773AD006D002FFFDCFBFC00093F1007F
:1079D20008950091E800089524D010911D021058D6
:1079E20029F01A9589F01A9591F019C061DF00917A
:1079F2001C02ECDF00E0EADF29D0EBDF02FFFDCF63
:107A020018D0E7DF0F770CC053DF00E0F2CF51D080
:107A12000F7710E0F801E55EFD4F0081EACF0FD04D
:107A22000BC001D000D00091F1000895D2DF0F7E8B
:107A320003C00091E8000B7F0093E80008950091D5
:107A4200EB0032DFC6DF077F089532DFC2DF0E7F31
:107A5200F3CF00911D02002329F00A9509F10A953E
:107A620031F01EC0E0DF0A9561D0D9F41AC061D0AE
:107A7200B9F4D9DF0F7711F416D01BD00093E900C7
:107A82001091EB0010FF0BC00ED010E01093E90034
:107A920021E0F801E55EFD4F20834FD003C042D0C4
:107AA20045D0CFDFC9CF1091EB0010621093EB00ED
:107AB20008951091E800177F1093E800089500914F
:107AC2001D02002311F4AFDF02C0013011F4B7DF51
:107AD200B3CF023031F52DD019F52091F1002F7777
:107AE2002093E90023D000FF19C081F01FD000616C
:107AF200DCDE01E010E0422F0E949F3E0093EA008C
:107B020000E00093EA0012D00860CFDE0BD030E034
:107B1200F901E55EFD4F008310D0DACF03D0D7CF55
:107B2200BFDE089500E00093E90008950091EB00A4
:107B3200089579DF3CDF00230895BADE4ADF0E7F25
:107B4200089583DF46DF02FFFDCF73DF42DF0F7749
:107B520073CF0091D70001600093D7000E948B3849
:107B620000E000931F0208950C94BF388A93FA93A1
:107B7200EA933A922A921A920A927A936A935A93BF
:107B82004A933A932A931A930A938FB70091DA0091
:107B920000FF24C00091D80000FF20C00EEF009328
:107BA200DA000091D90000FF11C001E000930D013D
:107BB200ABD0026096D09AD00860A2D00E949B38C7
:107BC2000091E0000E7F0093E00008C000E0009307
:107BD2000D0100931E0298D0046083D07FD002FF73
:107BE20005C084D002FF02C00BEF75D077D000FF32
:107BF2001BC07CD000FF18C001E000930E016AD0C8
:107C020083D000626ED00EEF6FD0006179D06ED05B
:107C12000F7D76D00091D80000620093D80009B59C
:107C22000D7F09BD00E009BD59D004FF20C05ED020
:107C320004FF1DC009B500FD05C00E94EB3809B55F
:107C420000FFFDCF0091D8000F7D0093D80042D0F5
:107C520000910E01002359F04CD00FEE45D00F7E5B
:107C620052D000643ED042D001604AD042D036D0D9
:107C720005FF0FC03BD005FF0CC000E000930E01D2
:107C820035D00F7E3DD00FED2FD00F7D3CD0006858
:107C920028D024D003FF0DC029D003FF0AC000E082
:107CA20000931F0207EF17D00E94743B2DD0116082
:107CB20018D08FBF09911991299139914991599100
:107CC200699179910990199029903990E991F991E6
:107CD200899118950FEE0093E10008950091E1005B
:107CE20008951183008308950093E1000091E2005A
:107CF20008950091E200006203D00091E200086062
:107D02000093E2000895FCDFE0E2F2E000811181DD
:107D1200089500008895FECF01E60DBF02E00EBF78
:107D2200C2EED2E00E947438002311F00E94D33ECA
:107D32000E9465380E948A3E0C948A3E4A951AF047
:107D4200000F111FFBCF0895BA92AA929A928A92BB
:107D52007A926A925A924A92BA93AA939A938A937D
:107D62000895BB84AA84998488847F806E805D8014
:107D72004C80BB81AA8199818881F0E00FB6F8948A
:107D8200CE0FDF1F0FBE089520E006D0E9F7089559
:107D9200259102D0E9F708952D9301501040202F2C
:107DA200212B089585E890E7FC0105911491FC01CF
:107DB2003296A591B491FC01349625913491422FCB
:107DC200432B19F0F901E4DF01C0DEDF069610E76C
:107DD2008139910748F308952F930CD02F9101D048
:107DE20008953CD0F12FE02F45E047BFE89536D00B
:107DF20012D0089533D0F12FE02F43E047BFE8952A
:107E02002DD008952BD0F12FE02F43E047BFE89506
:107E120025D001D0089522D041E147BFE8951EC088
:107E22001DD0F12FE02F41E247BFC895002D16C0AB
:107E320015D0F12FE02F49E047BFC895002D0EC0A5
:107E4200F32FE22F012E102E41E047BFE89506C026
:107E520005D0002E29E027BFE89500C0022E27B7E3
:107E620020FDFCCF202D0895022E27B726FDFCCF42
:107E7200202D08950E94A53E22974801C901DA01EA
:107E820010C05BD001E0A00E00E0B01E00E4A0161E
:107E920000E0B00608F440C0830120E030E00E9418
:107EA200F23E0A2F0B2B09F440C0082F0F7710E087
:107EB2002C01401A510A320100E4A02E03C00A2FFD
:107EC2000B2BE1F04816590680F0F40101914F01A5
:107ED2000983119729F001914F010883119711C06D
:107EE200F2013196049108830CC0F20104910983D6
:107EF2003196E817F907A1F7F401EDCF1BD00883FB
:107F020019839201088119810E94213F16D0AA94F7
:107F1200B1F62301AA24BB240DD0312F0F3F3F4FCE
:107F220009F4AFCF83011DD0B7CF01E02296ECE078
:107F32000C94B23E82010C945F3802E0400E00E0E5
:107F4200501E08959A938A9380E090E08C0109D0A4
:107F520080589F4F8F3F0FE69007C0F38991999108
:107F6200089520E030E00C94FB3E00000000000089
:067F720000000000FC000D
:107FE4000C94ED3E0C94113F0C94193F0C94213FDA
:0C7FF4000C94F23E0C94033F0C94293FC7
:040000030000700089
:00000001FF
